:020000040800F2
:1000000058A3002029030008571900087118000898
:1000100049190008AD060008651E00080000000030
:10002000000000000000000000000000690200085D
:10003000AF06000800000000C5020008211A0008F1
:100040004303000843030008430300084303000878
:10005000430300085919000843030008430300083C
:100060004303000843030008430300084303000858
:100070004303000843030008430300084303000848
:100080004303000843030008430300084303000838
:10009000430300084303000843030008B1060008B7
:1000A0004303000843030008ED1A00084303000857
:1000B0004303000843030008430300084303000808
:1000C00043030008430300084303000843030008F8
:1000D0004303000843030008051E0008430300080B
:1000E00043030008430300084303000843030008D8
:1000F00043030008430300084303000843030008C8
:1001000043030008430300084303000843030008B7
:100110004303000843030008F91A0008051B000800
:100120004303000843030008430300084303000897
:100130004303000843030008430300084303000887
:100140004303000843030008430300084303000877
:100150004303000843030008430300084303000867
:100160004303000843030008430300084303000857
:100170004303000843030008430300080000000095
:10018000430300084303000800F002F800F05CF8A5
:100190000AA090E8000C82448344AAF10107DA45E2
:1001A00001D100F051F8AFF2090EBAE80F0013F0D8
:1001B000010F18BFFB1A43F001031847F035000088
:1001C000103600000A444FF0000C10F8013B13F009
:1001D000070408BF10F8014B1D1108BF10F8015BA0
:1001E000641E05D010F8016B641E01F8016BF9D193
:1001F00013F0080F1EBF10F8014BAD1C0C1B09D1EA
:100200006D1E58BF01F801CBFAD505E014F8016B5B
:1002100001F8016B6D1EF9D59142D6D370470000ED
:100220000023002400250026103A28BF78C1FBD8FF
:10023000520728BF30C148BF0B6070471FB503F09D
:100240007BF91FBD10B510BD00F0DEF91146FFF7B8
:10025000F5FF02F0D7F900F0FCF903B4FFF7F2FF65
:1002600003BC00F0A5F900002C4B19680868B0E841
:10027000F04F80F30988BFF36F8F4FF0000080F3D9
:10028000118870470000000008480068006880F38B
:1002900008884FF0000080F3148862B661B6BFF39F
:1002A0004F8FBFF36F8F00DF00BF00BF08ED00E08E
:1002B000DFF80C00016841F470010160704700BF75
:1002C00088ED00E0EFF30980BFF36F8F134B1A68DE
:1002D0001EF0100F08BF20ED108A20E9F04F1060CB
:1002E00009B44FF0500080F31188BFF34F8FBFF374
:1002F0006F8F02F06DFE4FF0000080F3118809BC93
:1003000019680868B0E8F04F1EF0100F08BFB0EC95
:10031000108A80F30988BFF36F8F70471C0000209C
:10032000EFF30580704700000948804709480047FF
:10033000FEE7FEE7FEE7FEE7FEE7FEE7FEE7FEE795
:10034000FEE7FEE704480549054A064B70470000F2
:10035000DD1A0008890100085843002058A3002036
:10036000586300205863002053EA020C00F06980B3
:100370002DE9F04B4FF00006002B1FBFB3FA83F5B9
:1003800003FA05F424FA05F65E4012BF1643B2FAEA
:1003900082F502FA05F4C5F120051EBF22FA05FC1C
:1003A00044EA0C04203556EA044C4FEA144418BFC2
:1003B000641C4FF000084FF00009904271EB030CF1
:1003C00039D3002919BFB1FA81F701FA07F6B0FA5B
:1003D00080F700FA07F6C7F120071EBF20FA07FCD6
:1003E00046EA0C062037B6FBF4FCA7EB0507103FE6
:1003F00007F01F0BCBF120060CFA0BFB2CFA06F6CC
:1004000044BFB3460026202FA4BF5E464FF0000B2A
:100410005BEA060C08BF4FF0010B19EB0B09ABFBB5
:10042000027C48EB0608C01B06FB02CC0BFB03CC8E
:1004300071EB0C01C1E70B46024641464846BDE858
:10044000F08B13B54FF000004FF00001AFF30080C8
:10045000BDE81C40704710B5002000F0AFF8FFF772
:10046000F1FEBDE81040012000F0A2B8032A40F2DE
:10047000308010F0030C00F0158011F8013BBCF146
:10048000020F624498BF11F801CB00F8013B38BF5E
:1004900011F8013BA2F1040298BF00F801CB38BF6C
:1004A00000F8013B11F0030300F02580083AC0F08A
:1004B000088051F8043B083A51F804CBA0E8081032
:1004C000F5E7121D5CBF51F8043B40F8043BAFF365
:1004D0000080D20724BF11F8013B11F801CB48BFBF
:1004E00011F8012B24BF00F8013B00F801CB48BFF5
:1004F00000F8012B704710B5203AC0F00B80B1E82E
:100500001850203AA0E81850B1E81850A0E8185048
:10051000BFF4F5AF5FEA027C24BFB1E81850A0E851
:10052000185044BF18C918C0BDE810405FEA827C6B
:1005300024BF51F8043B40F8043B08BF7047D20782
:1005400028BF31F8023B48BF11F8012B28BF20F823
:10055000023B48BF00F8012B70474FF0000200B586
:10056000134694469646203922BFA0E80C50A0E8D6
:100570000C50B1F12001BFF4F7AF090728BFA0E884
:100580000C5048BF0CC05DF804EB890028BF40F850
:10059000042B08BF704748BF20F8022B11F0804F92
:1005A00018BF00F8012B7047704770477047000074
:1005B00001491820ABBEFEE72600020010B500F08E
:1005C0000BF8BDE8104000F001B87047002801D0DA
:1005D000FFF7EEBF7047000010B5002102A000F049
:1005E00041F8012010BD0000534947414252543A9E
:1005F0002041626E6F726D616C207465726D696E00
:100600006174696F6E000000754600F04BF8AE46ED
:1006100005006946534620F00700854618B020B50E
:10062000FFF790FEBDE820404FF000064FF00007B6
:100630004FF000084FF0000B21F00701AC46ACE88A
:10064000C009ACE8C009ACE8C009ACE8C0098D46F7
:10065000704710B50446AFF300802046BDE8104057
:10066000FFF7FBBD70B505460C460A2000E06D1C87
:1006700000F011F835B128780028F8D102E0641CA8
:1006800000F009F814B120780028F8D1BDE87040D6
:100690000A20AFF3008008B569468DF800000320FA
:1006A000ABBE08BD00487047F8420020FEE7704727
:1006B00010B5064C01202070000200F099F84FF4AC
:1006C000007000F095F80020207010BD0800002098
:1006D0002DE9F0410446876D00F088F9054694F84D
:1006E00035000026022806D08020606584F834603A
:1006F0000120BDE8F0812068016821F01601016049
:100700002068416921F080014161206C08B9A06C2A
:1007100020B12068016821F00801016020680168AB
:1007200021F0010101600CE000F060F9401B052898
:1007300007D920206065032084F8350084F83460F0
:10074000D7E720680068C007EED194F85C103F201E
:100750008840B860012084F8350084F834600020B7
:10076000C7E790F83510022903D0802141650120A8
:100770007047052180F835100068016821F00101FB
:10078000016000207047000010B54FF48071164AD8
:10079000164C884211D1104600F01EF9012803D0F2
:1007A000BDE8104002F034BA02F04AFA208800286E
:1007B00002D06068401C606010BD4FF40071884238
:1007C000FAD1104600F008F9012803D0BDE8104026
:1007D00002F026BA02F034FA20880028ECD0A06893
:1007E000401CA06010BD00000014024084000020E6
:1007F000044910B50A68024202D00860FFF7C4FF3E
:1008000010BD0000143C01402DE9F84FDFF89C9129
:10081000002209F1040A0AF1040B03274FF00F0C20
:100820000BF1040E01250B6895402B40AB426ED1B5
:100830000C7904F00304012C01D0022C15D1866838
:10084000540007FA04F826EA0806D1F80C8008FAE2
:1008500004F848EA0608C0F808804468AC430D79FB
:10086000C5F300159540254345600C79E443A40782
:1008700008D0C568540007FA04F6B5438E68A64050
:100880002E43C6600C7904F00304022C11D1D40865
:1008900000EB8406356A5407E40E0CFA04F825EAE6
:1008A0000805D1F8108008FA04F848EA0508C6F8E7
:1008B00020800568540007FA04F6B5430E7906F067
:1008C0000306A6402E4306604C6814F4403F66D0F1
:1008D000374C256845F480452560246822F00305DF
:1008E00004F480440094334C05EB0408D8F808580D
:1008F0009407260F0CFA06F4A5432F4CA04201D111
:10090000002424E02D4CA04202D101241FE046E047
:100910002B4CA04201D1022419E02A4CA04201D163
:10092000032414E0284CA04201D104240FE0274CFA
:10093000A04201D105240AE0254CA04201D10624A1
:1009400005E0244CA04201D1072400E00824B44073
:100950002C43C8F80848D9F800404D464E689C43DF
:10096000F60300D51C432C60DAF8004055464E686B
:100970009C43B60300D51C432C60DBF800405D4669
:100980004E689C43F60200D51C432C60DEF8004004
:1009900075464E689C43B60200D51C432C60521C21
:1009A000102AFFF43FAFBDE8F88F0000003C014083
:1009B0004438024000300140000002400004024080
:1009C00000080240000C02400010024000140240E7
:1009D00000180240001C02400069084000D00120BD
:1009E00070470AB1816170470904FBE701488068DC
:1009F000704700000C000020024881680278114412
:100A0000816070470C0000200B4810B5016841F46C
:100A100000710160016841F480610160016841F486
:100A200080710160032000F097F80F2000F006F8B5
:100A300000F03EF8002010BD003C024010B5014619
:100A400088B000221A2000F067F81A2000F056F84B
:100A500013480024016841F480210160006805A961
:100A600000F480200690684600F022F900F050F96A
:100A70000C494000B0FBF1F10C480B4A491E0260E2
:100A800040F2E732C0E90324C0E9011400F076FB2C
:100A900010B1012008B010BD044800F0CFFBF9E709
:100AA0004438024040420F000048014090040020BA
:100AB000114808B5016841F480410160006800F404
:100AC000804000900C48001F016841F08051016097
:100AD0000068002200F0805000900F21901E00F06E
:100AE0001BF805210022084600F016F8BDE8084072
:100AF000052000F003B8000044380240002809DB5C
:100B000000F01F02012191404009800000F1E02027
:100B1000C0F8001170470000F0B40E4B1B68C3F31F
:100B20000223C3F10704042C00D904241D1D072D42
:100B300001D2002300E0DB1E012606FA04F56D1E3B
:100B40000D409D409E40761E164045EA0601F0BCD1
:100B500001F0BEB90CED00E0064A00F00701106894
:100B60004FF6FF03184040EA012003490843106094
:100B7000704700000CED00E00000FA052DE9F04799
:100B80000D46040065D0DFF81491D9F80000EFB2EB
:100B900000F00700A84207D289F80070D9F80000D9
:100BA00000F00700A84254D120683D4E810712D5BD
:100BB000400703D5306840F4E050306020780007EB
:100BC00003D5306840F4604030603068A16820F0A0
:100BD000F000084330602078C0072DD030496068AD
:100BE0000839012812D0022813D0032811D009682F
:100BF000890700292DDA316821F0030101433160B2
:100C0000FFF7F4FE804641F2883A0EE00968890356
:100C1000EFE709688901ECE7FFF7E8FEA0EB0801C0
:100C2000514502D90320BDE8F0873068616800F0C3
:100C30000C00B0EB810FEFD1D9F80010484601F05D
:100C40000701A94207D90770006800F00700A84211
:100C500001D00120E7E72078400705D53068E1683A
:100C600020F4E050084330602078000706D5306853
:100C7000216920F4604040EAC100306000F058F87B
:100C80003168084AC1F30311515CC8400649086045
:100C900006480068FFF7D2FE0020C4E7003C02408F
:100CA000083802407C3500081800002010000020A1
:100CB0000F2202600C4A136803F0030343601368B9
:100CC00003F0F0038360136803F4E053C360126819
:100CD0004FF4E05303EAD20202610448006800F0D6
:100CE000070008607047000008380240003C0240DE
:100CF0000448054900680968044AC1F38221515C2F
:100D0000C840704718000020083802408C350008A1
:100D10000448054900680968044AC1F34231515C3E
:100D2000C840704718000020083802408C35000881
:100D3000154810B5006810F00C01144813D043108A
:100D400004290FD008290ED10F4C241F216801F06F
:100D50003F022168490207D52068C0F38810A0FB34
:100D6000030106E0184610BD2168C1F38811A1FBFC
:100D700000010023FFF7F8FA2168C1F30141491C83
:100D80004900B0FBF1F010BD083802400024F40027
:100D90002DE9F84F040075D02078DFF838A3C0079C
:100DA000AAF1040548D00AF104000168C1F38101E9
:100DB000012908D00068C0F3810002280AD1DAF8BE
:100DC0000000400206D52868800335D560680028F9
:100DD000E1D031E06068B0F5803F10D0B0F5A02FD1
:100DE000286810D020F480302860286820F4802003
:100DF00028606068A0B1FFF7F9FD06460CE028689E
:100E000040F48030F4E740F480202860F7E7FFF7F3
:100E1000EDFD801B642871D828688003F7D50BE0AE
:100E2000FFF7E4FD064604E0FFF7E0FD801B6428C1
:100E3000F1D828688003F7D42078DFF89C928007E7
:100E40004FF0000B3DD5A348001D016811F00C0FB9
:100E500008D00068C0F3810002280AD1DAF8000047
:100E6000400206D42868800715D5E068012809D11A
:100E700011E0E068B8B10120C9F80000FFF7B6FD45
:100E8000064605E022E1FFF7B1FD801B0228C2D82B
:100E900028688007F7D52868216920F0F80040EA23
:100EA000C10028600DE0C9F800B0FFF79FFD0646BD
:100EB00004E0FFF79BFD801B02281FD828688007ED
:100EC000F7D42078000722D5824F844861697037B3
:100ED00071B101210160FFF789FD064604E0FFF7CB
:100EE00085FD801B022809D838688007F7D50EE0F9
:100EF000C0F800B0FFF77AFD064605E082E0FFF794
:100F000075FD801B02287DD838688007F7D42078CB
:100F1000400765D56F484FF000083C300068C000BE
:100F20000BD46C483C30016841F08051016000688E
:100F30004FF0010800F080500090694F3868C005FC
:100F40000FD4386840F480703860FFF74FFD0646D4
:100F500004E0FFF74BFD801B022853D83868C0051A
:100F6000F7D55C4FA0686C3701280FD0052838688A
:100F700010D020F001003860386820F0040038609C
:100F8000A068B0B1FFF732FD06460EE0386840F0C9
:100F90000100F4E740F004003860F7E7FFF726FDB2
:100FA000811B41F28830814263D838688007F5D5CB
:100FB0000DE0FFF71BFD064606E0FFF717FD811B5E
:100FC00041F28830814254D838688007F5D4B8F1AE
:100FD000000F05D03F483C30016821F0805101608E
:100FE000A069B8B33B49091D0968C1F38101022911
:100FF00046D00228584606D0C9F86000FFF7F6FC34
:10100000044639E035E04F46C9F86000FFF7EEFCD2
:10101000064604E0FFF7EAFC801B022829D828686E
:101020008001F7D4D4E907010843A16A2D4A490891
:1010300002EB0141626A41EA8211084394F82C10E4
:1010400040EA0161CAF8001001203866FFF7CEFCC3
:10105000044605E03CE0FFF7C9FC001B022808D865
:1010600028688001F7D533E0FFF7C0FC001B022899
:1010700002D90320BDE8F88F28688001F4D427E066
:101080000128F7D0DAF80000E26900F4800191420B
:101090001CD1226A00F03F01914217D147F6C0717E
:1010A000626A0140B1EB821F10D1A26A4FF0FF3398
:1010B00000F4403103EB5202B1EB024F06D194F839
:1010C0002C1000F07060B0EB016F01D00120D1E76F
:1010D0000020CFE70438024000004742800E47421C
:1010E000007000400000FFFF7047704770B590F837
:1010F0003C20012A32D0012580F83C50022280F8A1
:101100003D2002685368946823F070060B683343EF
:101110005360134B02689A4214D0B2F1804F11D041
:10112000104B9A420ED0104B9A420BD00F4B9A4262
:1011300008D00F4B9A4205D00E4B9A4202D00E4B6C
:101140009A4204D1496824F080031943916080F8E1
:101150003D50002180F83C10084670BD022070BD53
:10116000000001400004004000080040000C004066
:1011700000040140004001400018004010B5040088
:1011800003D094F83D0010B107E0012010BD00200D
:1011900084F83C00204600F01FF8022084F83D004F
:1011A000211D206800F0B4FC012084F8460084F87A
:1011B0003E0084F83F0084F8400084F8410084F841
:1011C000420084F8430084F8440084F8450084F821
:1011D0003D00002010BD000008B50068144A154904
:1011E00090420ED1086840F01000086008680022A4
:1011F00000F01000009005213620FFF78DFC36200E
:1012000010E00D4A904211D1086840F020000860BB
:101210000868002200F02000009005213720FFF729
:101220007BFC3720BDE80840FFF768BC08BD000024
:1012300000100040403802400014004090F83D107B
:10124000012901D001207047022180F83D1001687A
:10125000CA6842F00102CA6000681149884214D08D
:10126000B0F1804F11D00F4988420ED00E4988420C
:101270000BD00E49884208D00D49884205D00D494F
:10128000884202D00C49884204D1816801F00701EC
:10129000062903D0016841F0010101600020704778
:1012A000000001400004004000080040000C004025
:1012B0000004014000400140001800400168CA6875
:1012C00022F00102CA6001680A6A41F211131A424F
:1012D00007D10A6A9B101A4203D10A6822F0010260
:1012E0000A60012180F83D1000207047704770B5FA
:1012F0000446006801694FF00005C943890715D409
:10130000C168C943890711D4E91E01610120207712
:10131000206880698007204602D0FFF7E7FF04E0DD
:1013200000F098F8204600F096F8257720680169CB
:10133000C943490717D4C168C943490713D46FF09B
:1013400004010161022020772068806910F4407F49
:10135000204602D0FFF7CAFF04E000F07BF82046E9
:1013600000F079F8257720680169C943090716D488
:10137000C168C943090712D46FF008010161042054
:1013800020772068C0698007204602D0FFF7AEFFB3
:1013900004E000F05FF8204600F05DF82577206853
:1013A0000169C943C90617D4C168C943C90613D422
:1013B0006FF010010161082020772068C06910F4E7
:1013C000407F204602D0FFF791FF04E000F042F892
:1013D000204600F040F8257720680169C943C90715
:1013E00008D1C168C943C90704D1891E01612046DB
:1013F00000F032F820680169C943090609D4C168C0
:10140000C943090605D46FF0800101612046FFF74A
:101410006BFE20680169C943490609D4C168C94304
:10142000490605D46FF040010161204600F078F8CC
:1014300020680169C94389060BD4C168C94389067C
:1014400007D46FF0200101612046BDE87040FFF72E
:101450004CBE70BD704770472DE9F04100682149CE
:10146000884203D1BDE8F041FFF7C6BA1E49002209
:1014700088420DD11D490888401C80B208801C4B51
:101480001B8898422BD30A80BDE8F04101F02EBBA7
:101490001849884223D11849184B194C0868194D2E
:1014A000401C08601B78184E184F1BB923682B602E
:1014B00033683B60164B1B68984210D115480A6090
:1014C00002801549012008801448FFF7F7FE2068C4
:1014D000286030683860BDE8F04101F091BBBDE89C
:1014E000F08100000048014000140040AA000020E4
:1014F000A800002000100040A000002008000020EC
:1015000088000020900000208C0000209400002023
:101510009C0000208400002098000020680100202A
:101520007047704770470000F8B5016804460868C6
:10153000CA684B6910F00F0F4FF0000559D003F047
:10154000010602F49077374365D0C10705D0D10575
:1015500003D5216C41F001012164410705D5D9076C
:1015600003D0216C41F002012164810705D5D90720
:1015700003D0216C41F004012164010707D502F07A
:101580002001314303D0216C41F008012164216C1A
:1015900000293AD0800604D5900602D5204600F0F6
:1015A0004AFB20684069216CC0F38010090700D411
:1015B00060B3204600F018FB20684069400621D542
:1015C0002068143050E8001F21F0400140E800126C
:1015D000002AF5D1A06BA8B16C490165A06BFFF79B
:1015E000C0F8002811D0A06B016D01B0BDE8F0403B
:1015F000084783060FD593060DD52046BDE8F84071
:1016000000F019BB2046FFF78DFFF8BD2046FFF71D
:1016100089FF2564F8BD266B2023012E79D1C606EB
:1016200077D5D60675D508684868009048694006A1
:1016300040D5A16B086840680004000CEAD0A28D78
:101640008242E7D9E085C869B0F5807F2DD0206857
:101650000C3050E8001F21F4807140E80012002A8D
:10166000F5D12068143050E8001F21F0010140E856
:101670000012002AF5D12068143050E8001F21F034
:10168000400140E80012002AF5D184F83E3025637D
:1016900020680C3050E8001F21F0100140E80012D3
:1016A000002AF5D1A06BFFF713F8A08DE18D401A49
:1016B00081B229E0A08DE18D401A81B2E08D002831
:1016C000A8D00029A6D020680C3050E8002F22F4C2
:1016D000907240E80026002EF5D12068143050E8C2
:1016E000002F22F0010240E80026002EF5D184F8F8
:1016F0003E30256320680C3050E8002F22F01002A5
:1017000040E80023002BF5D12046FFF70AFFF8BD83
:10171000FFE705062BD5150629D594F83D002128AD
:10172000F5D1A068B0F5805F01D12069B0B1206A21
:10173000411C2162216800784860E08C401E000452
:10174000000CE084E3D12068C16821F08001C16011
:101750002068C16841F04001C160D8E7206A008874
:10176000C0F308004860206A801C2062E5E740065C
:10177000CDD55006CBD5CA68204622F04002CA60BB
:1017800084F83D3000F073F8C1E70000D91B000871
:1017900070B5040004D094F83D00002510B106E0B7
:1017A000012070BD84F83C50204600F023F824202E
:1017B00084F83D002068C16821F40051C1602046D2
:1017C00000F09AFA2068016921F4904101612068D3
:1017D000416921F02A0141612068C16841F400514A
:1017E000C1602564202084F83D0084F83E0000207C
:1017F00070BD000010B586B0044614216846FEF79F
:10180000ACFE17492068884228D11648002102689A
:1018100042F400320260006800F400300590114884
:101820001038026842F001020260006800F0010016
:1018300005900C2000900220CDE9010103200390C7
:101840000720049069460848FEF7DEFF00220521C4
:101850002620FFF761F92620FFF750F906B010BDEA
:10186000004400404038024000000240704770478A
:10187000FEE700002DE9F04186B014216846FEF72E
:101880006CFE2D480024016841F0200101600168D0
:1018900001F020010591016841F0800101600168BB
:1018A00001F080010591016841F0010101600168CA
:1018B00001F001010591016841F008010160006833
:1018C0001E4F00F008000590002210213846FFF757
:1018D00088F8DFF86C804FF46046002231464046BD
:1018E000FFF77FF84FF4407000904FF48810CDE977
:1018F000010469461348FEF787FF10200125CDE952
:1019000000050220CDE9020469463846FEF77CFF57
:101910000096CDE90154694640460394FEF774FFF2
:10192000002205211720FFF7F7F81720FFF7E6F848
:1019300006B0BDE8F08100003038024000000240EF
:10194000000C024000140240FEE700F001FD0520FB
:1019500000F0E0FEF9E7FEE7704700002DE9F041F6
:1019600049F60A52104480B2A0F51D401E4D1F4A90
:101970001F4B204C204E0A38082814D2DFE800F014
:10198000041015171C1F282B01290CD11B490120FD
:1019900008801B48FFF752FCBDE8F04101F048B950
:1019A000C8B218490880BDE8F0812960FBE72868C3
:1019B00040EA01402860F6E711601960F3E710681B
:1019C00040EA01401060186840EA01401860EAE708
:1019D00021603160E7E7206840EA0140206030681C
:1019E00040EA01403060DEE79C00002088000020D3
:1019F000900000208C000020940000208400002033
:101A00006801002098000020044C4FF4FA75284625
:101A100000F080FE206800F0B3FEF8E70000002030
:101A200010B5502080F31188BFF34F8FBFF36F8F35
:101A300001F0BAFC18B104494FF080500860002052
:101A400080F3118810BD000004ED00E030B593B0C4
:101A500030216846FEF781FD14210CA8FEF77DFDBC
:101A60001C480025016841F080510160006800F0C9
:101A7000805011901848016841F48041016000686D
:101A8000022400F480401190012000900004019095
:101A90008001CDE9064008200890A820CDE909047E
:101AA00004200B906846FFF773F908B172B6FEE7A1
:101AB0000CA90F2081E831004FF480500F90109056
:101AC00002210CA8FFF75AF8002801D072B6FEE7F1
:101AD00013B030BD40380240007000400248016839
:101AE00041F470010160704788ED00E00148FFF7A4
:101AF000FEBB0000900400200148FFF7F8BB000087
:101B0000680100200148FFF7F2BB0000B00100208F
:101B1000F0B50268254D264E264FDFF89CC0274BB6
:101B20004FF0804EA84209D0704507D0B04205D092
:101B3000B84203D0604501D0984203D122F070042E
:101B40004A682243A8421BD0704519D0B04217D032
:101B5000B84215D0604513D0984211D0184CA0421D
:101B60000ED0184CA0420BD0174CA04208D0174CF6
:101B7000A04205D0164CA04202D0164CA04203D180
:101B800022F44074CA6822434C6922F08002224346
:101B900002608A68C2620A688262A84201D09842E2
:101BA00001D10969016301214161F0BD00000140DB
:101BB0000004004000080040000C00400004014008
:101BC000004001400044014000480140001800402E
:101BD000001C00400020004010B5806B0021C18532
:101BE000C184FFF79FFC10BD01680C3151E8002F44
:101BF00022F4907241E80023002BF5D101681431E2
:101C000051E8002F22F0010241E80023002BF5D11A
:101C1000016B012909D101680C3151E8002F22F034
:101C2000100241E80023002BF5D1202180F83E105E
:101C300000210163704708B590F83E10222901D0B9
:101C4000022008BD81684FF48053994201D1026996
:101C500022B1826A99421BD049B10AE00268816AC6
:101C60005268C2F308020A80816A891C08E001698F
:101C700071B10168496801F07F011170816A491CE6
:101C80008162C18D491E0904090CC18503D019E088
:101C900001684968F1E70168CA6822F02002CA6059
:101CA0000168CA6822F48072CA6001684A6922F039
:101CB00001024A61202180F83E10016B012903D006
:101CC000FFF7D4FD002008BD0021016301680C313D
:101CD00051E8002F22F0100241E80023002BF5D13B
:101CE00001680A68D20602D50A6849680091818DA8
:101CF000FFF717FCE6E7000070B5044600680169CD
:101D0000E26821F4405111430161A1682069E26950
:101D100001436069104301432068C26849F20C63C3
:101D20009A430A43C26020684169A26921F4407164
:101D30001143416131492068884202D030498842CC
:101D400002D1FEF7E5FF01E0FEF7D2FFE2690023D2
:101D5000192164253226B2F5004F626828D0A0FB15
:101D60000101930F9200FEF7FFFA0146B0FBF5F078
:101D70006FF01802504301EB800006EB0010B0FB3F
:101D8000F5F000F0F002B1FBF5F002EB0012B1FB50
:101D9000F5F06FF01803584301EB800006EB0010DC
:101DA000B0FBF5F000F00F0021681044886070BDB2
:101DB000A0FB010192185B41FEF7D6FA0146B0FB89
:101DC000F5F00201B1FBF5F06FF01803584301EB99
:101DD000800006EBC000B0FBF5F000F0F80002EB6D
:101DE0004002B1FBF5F0584301EB800006EBC00068
:101DF000B0FBF5F000F00700D6E70000001001404E
:101E00000014014010B5044800F008F8BDE8104087
:101E10000148FFF789BB0000F801002010B50168F8
:101E200004460868C968C0F3401001F0200118B1E9
:101E300011B10A480068804720680168C068C1F392
:101E4000C01100F08000002906D0002804D004480A
:101E50000068BDE81040004710BD0000D800002019
:101E6000DC000020FEE70000014649F60A5211445A
:101E700030B58AB21149A2F51D420020104B114C19
:101E800009680A3A092A0AD2DFE802F005070A0CB3
:101E90000E10120915000C4800E00C48008830BDF7
:101EA00088B230BD080C30BD186802E0186803E045
:101EB000206880B230BD2068000C30BD9C0000203E
:101EC0009000002094000020840000209800002052
:101ED0000907090E002804DB00F1E02080F8001457
:101EE000704700F00F0000F1E02080F8141D7047EB
:101EF00002480168491C016070470000640100202D
:101F000002480168491E016070470000640100201A
:101F100070B5064D00242878012802D006242046FA
:101F200070BD2869804700202870F8E7B8000020BD
:101F300070B50C460988002605292FD1417840F25A
:101F4000CF750A0281781143C278491C13020279C5
:101F500089B21A43531EAB4220D2002323800125AD
:101F600000F8015B23885B1C2380530703D005EB3B
:101F7000D203DDB201E0C2F3C70500F8015B23889C
:101F80005B1C2380002300F0E6FA18B100F0A2FDEC
:101F9000064604E020882844208000E003263046DE
:101FA00070BD70B50C460988002605292FD14178EF
:101FB00040F2CF750A0281781143C278491C13029E
:101FC000027989B21A43531EAB4220D200232380E8
:101FD000022300F8013B23885B1C2380530704D0B5
:101FE000012303EBD203DDB201E0C2F3C70500F821
:101FF000015B23885B1C238000F0AFFA18B100F06E
:1020000069FD064604E020882844208000E003267D
:10201000304670BD70B50C4609880026052925D1CB
:10202000417805790A0281781143491C6A1E89B2F8
:102030007C2A1BD800222280032200F8012B228850
:102040000023521C22806A0000F8012B2288521CB7
:1020500022802A4600F084FA18B100F03BFD0646C3
:1020600005E0208800EB4500208000E00326304694
:1020700070BD70B50C4609880026052927D1417826
:102080008278057942EA0122521C91B2C27845EA6F
:1020900002256A1E7C2A1AD200222280042200F81D
:1020A000012B2288521C22806A0000F8012B228812
:1020B000521C22802A4600F093FA18B100F00AFD63
:1020C000064605E0208800EB4500208000E003265E
:1020D000304670BD2DE9F0410446088800270D46C2
:1020E0000A2842D3607826790102A078227A084330
:1020F000401C1FFA80F8E07846EA00266079731EDB
:102100000102A0790843401C81B2E0797C2B42EAAD
:102110000022607A28D83AB3792A25D8B0EB420F4A
:1021200022D1012304F10A0000F01AFA98B9002123
:102130002980172121702988601C491C2980710081
:1021400000F8011B29880023491C2980324641469A
:1021500000F006FA18B100F0BDFC074605E028883B
:1021600000EB4600288000E003273846BDE8F081F8
:1021700070B5064C0D4606492288401CFEF776F9DC
:102180002088401C2880002070BD0000A400002092
:10219000C841002038B50988002405290BD14178B1
:1021A0000A0281781143491C027989B21AB9C278AE
:1021B000FF2A03D012B10324204638BD00228DF837
:1021C0000120C078FF280CD08DF8002001231A468A
:1021D000684600F0C0F90028EED000F07BFC044611
:1021E000EAE701208DF80000F0E710B50988002427
:1021F000052902D00324204610BD417801230A029C
:102200008178C01C1143491C89B21A4600F0A8F914
:102210000028F0D000F05EFC0446ECE72DE9F04128
:102220000D4609880024052926D94178827843790A
:1022300042EA0122521C96B2C178027942EA012296
:10224000510704D0012101EBD201C9B201E0C2F370
:10225000C701571EB7F5F66F0ED299420CD1012374
:102260003146801D00F077F918B100F033FC0446C8
:1022700003E00520288000E003242046BDE8F0812B
:1022800070B50D460988002406291DD341780A023D
:1022900081781143C278491C1302027989B21A432A
:1022A0004379561E772E0FD85606360E9E420BD116
:1022B0000123801D00F054F918B100F00BFC044616
:1022C00003E00520288000E00324204670BD0000C4
:1022D0002DE9F0411C46069B1746064629B1F72911
:1022E00003D8134D084629710EB102241BE0114991
:1022F0002961114969611149E9601149A961002108
:10230000E96110492962104969621049A9622246AF
:10231000394600F077F8040005D100F095FE28B1A9
:102320006E71012028702046BDE8F0810324FAE791
:10233000B8000020192500083D250008A924000840
:1023400051240008F53000089D3100085D31000877
:1023500038B52B4C207808B1062038BD684600F00F
:1023600065FE012849D19DF80000E8B3012802D09C
:10237000022842D10FE0224AA369921D911CC81F76
:10238000984788BB60782179884200D060BB0220E2
:1023900000F062FE31E0A0680121194B0578A570BC
:1023A000E17000212C3313F8312062B1AA4207D129
:1023B00003EBC1014A681249891D9047E07002E0B1
:1023C000491C1029EFDB607870B1E27882B10020FF
:1023D000E080A07840F08001A0680170E188491C8D
:1023E00089B2E180425400E007E0E088401CE080D0
:1023F000D4E90213E28820799847002038BD000014
:10240000B80000202DE9F0411F4615460E46002475
:10241000FFF76EFD3B4608222946304600F030FEAD
:1024200001280DD1B5F5964F01D9232003E00749C6
:102430006800B1FBF0F080B200F056FE012800D039
:102440000324FFF75DFD2046BDE8F081A07F170063
:102450002DE9F0411646884607460024FFF748FD5F
:102460000F4DA888FF2801D9FDF7F5FFA88804289B
:1024700004D3A9880B4800F0EBFB28B10524FFF733
:102480003FFD2046BDE8F081064800783870A888F6
:10249000C01E30800348401CC8F80000EFE7000071
:1024A000AC000020E84100202DE9F04791460D46A0
:1024B00007460026FFF71CFD154C6078012805D063
:1024C0000526FFF71DFD3046BDE8F0876D1E4FF075
:1024D0000108A5602846A4F802802F70628802EBEC
:1024E00009016180618800F0B3FB6188094A5318D3
:1024F000491C61801870010A60880244401C608099
:10250000117084F800800121002000F007FCD8E75A
:10251000AC000020E841002010B5FFF7E9FC0649B7
:10252000002048700146012000F0F8FB00F014FC88
:10253000BDE81040FFF7E4BCAC00002010B5FFF789
:10254000D7FC0021084600F0E9FB00F0FFFBBDE8E6
:102550001040FFF7D5BC01207047012070470000F4
:102560002DE9F0410646002749F60B5015468142F9
:1025700030D3481949F6135290422BD8A1F51D4487
:102580000B3C6BB1012B26D11FE0A0B2FFF76CFC16
:10259000010A06F8011B6D1E06F8010BADB2641CA2
:1025A000002DF2D117E016F8010B000228F81400F4
:1025B00016F8012B104328F8140081B2A0B2FFF7DF
:1025C000CDF96D1EADB2641C01E0DFF81080002D66
:1025D000E9D100E001273846BDE8F081E84200205B
:1025E00001207047002210210148FEF7FAB90000CF
:1025F00000000240012210210148FEF7F2B900005C
:102600000000024092B0FEF7FFF9FFF71FFAFFF754
:1026100031F9384836494FF4964501600024C0E945
:1026200001540C21C460C0E904418461C461FFF716
:10263000AFF808B172B6FEE72E480F9448382E491D
:10264000109401602921C0E9011431218461C16025
:10265000FEF794FD08B172B6FEE726480F940FA965
:1026600048381094FEF742FD08B172B6FEE72148E3
:102670000F94903821491094016045F20721C0E978
:10268000011440F69F718461C160FEF777FD08B1C7
:1026900072B6FEE717480F940FA990381094FEF712
:1026A00025FD08B172B6FEE7FFF79CFF00222B461E
:1026B000052110460094FFF70BFEFFF729FC1C22B2
:1026C0000F4901A8FDF717FF002101A800F02EF81F
:1026D0000C4C0B491C2220601C3108A8FDF70BFF95
:1026E000002108A800F022F8606000F01AF8FEE768
:1026F00000440040F8010020001400400010004099
:10270000443500080000002001460020842900D044
:10271000C81C704710B500B9012000F09FFB0020D5
:1027200010BD10B500F016FC002010BD7FB50D46A1
:1027300004464169B0F9080081B1A16971B1FFF7A0
:10274000E3FFD4E905128DE80700D4E900102B4619
:10275000226900F0FCFD039004B070BDFFF7D4FFC8
:1027600003A9CDE90001208A2B4682B2D4E90010EA
:1027700000F0C0FD012801D00020EDE70398EBE751
:1027800010B500F091FB002010BD00002DE9F041D4
:10279000184E0F460446F5683068001D00F06EFACA
:1027A00038B9306890F82C10012088403169814395
:1027B0003161601C07D137B13168BDE8F0410E4886
:1027C000091D00F09FBA30682C44AC424460316867
:1027D00005D2B06BBDE8F041091D00F07BBA706B0B
:1027E000091D00F077FAB06A844200D2B462BDE8F5
:1027F000F08100001C000020B40500202DE9F0410C
:10280000054600F0B3FA2E4EB068401CB060306848
:102810002C4F10B1706940B32DE03560B0680128CD
:1028200029D1002404EB840007EB800000F044FA77
:10283000641C072CF6D323488C3000F03DFA214865
:10284000A03000F039FA1F48B43000F035FA1D48C6
:10285000C83000F031FA1B48DC3000F02DFA19487E
:102860008C3070631430B06305E03068E96AC06A88
:10287000884200D83560706A0121401C7062E86AA5
:10288000326981401143316100EB800007EB800029
:10289000291D00F037FA00F089FA706900280CD081
:1028A0003068E96AC06A884207D207494FF0805011
:1028B0000860BFF34F8FBFF36F8FBDE8F08100005A
:1028C0001C000020D804002004ED00E010B50446F0
:1028D00090F8510058B101280CD002280FD0502098
:1028E00080F31188BFF34F8FBFF36F8FFEE7206B2C
:1028F00000F070FA2046BDE8104000F06BBA10BD41
:1029000010484FF47051420706D0C01D0D4920F009
:102910000700411AC1F570510B4A00230144C2E976
:1029200000030839183A21F0070111604B600B6071
:102930000B1AC0E9001393604FF0004053605061E0
:1029400070470000C805002070000020134E144D91
:10295000A6F1C8074FF08058DFF8489011E000F06A
:1029600005FAF068C468201D00F088F9A868401EC8
:10297000A8606868401E686000F018FA2046FFF7FB
:10298000A5FF68680028EAD138680128F9D9C9F894
:102990000080BFF34F8FBFF36F8FF2E7A0050020D9
:1029A0001C00002004ED00E02DE9F0479A46DDE927
:1029B000098481466FF00303206B03EB820210440D
:1029C000089D20F00706700707D0502080F311887B
:1029D000BFF34F8FBFF36F8FFEE7002761B1002079
:1029E00023180A5C83F834200A5C12B1401C1028BA
:1029F000F6D384F8437001E084F83470072D00D3D7
:102A00000625E562C4E91157201D00F060F904F1C4
:102A1000180000F05CF92461C5F107006462A06150
:102A2000E76484F8507052464946304600F0D2F8C8
:102A30002060B8F1000F01D0C8F80040BDE8F08771
:102A400030B5114900E011460A688242FBD34B6859
:102A50005C18844203D140681844486008464368C3
:102A60001C18944209D1084C183C2468A24209D091
:102A700052681A4442600A6812680260814200D0BB
:102A8000086030BD0460F9E7700000200648416B23
:102A9000096829B1416BC968C96849688162704792
:102AA0004FF0FF31FAE700001C00002008484068A2
:102AB000401C4FF0500080F3118804D0BFF34F8FBB
:102AC000BFF36F8FFEE7BFF34F8FBFF36F8FFEE74C
:102AD00078000020002804D0012803D0072803D064
:102AE00004207047022070470620704701480068A4
:102AF00000470000E00000202DE9F04105460026D7
:102B000000F05EFA324F386808B9FFF7F9FE7869CD
:102B100005424ED1C5B3083568070ED005F0070051
:102B2000C0F108000544680707D0502080F31188E1
:102B3000BFF34F8FBFF36F8FFEE72DB378688542E9
:102B400037D8234918310846046801E02146044675
:102B50006068A84202D220680028F7D13868844211
:102B600027D00E682068086060680836411B10296D
:102B70000FD96019420708D0502080F31188BFF3A5
:102B80004F8FBFF36F8FFEE713E041606560FFF783
:102B900057FF61687868401A7860BA68904200D23E
:102BA000B860786901430020C4E90001F868401C5E
:102BB000F86000F05FFC700707D0502080F31188A8
:102BC000BFF34F8FBFF36F8FFEE73046BDE8F08154
:102BD0005800002010B5031F4FF080741C601B1FAD
:102BE00021F001011960191F044B0B6014390A60B0
:102BF000091F6FF0020244380A6010BDAD2A0008B8
:102C000000224FF400510148FDF7EBBE000C0240DA
:102C100000224FF480410148FDF7E3BE000C024062
:102C200000224FF400410148FDF7DBBE000C0240DA
:102C3000012251030148FDF7D4BE0000000C024000
:102C4000012291030148FDF7CCBE0000000C0240B8
:102C500070B5094DFF231A4605F5807605E010F89A
:102C6000014B54402A5D5A40335D491E89B2F6D269
:102C700042EA032070BD000094350008D0E901321B
:102C800001699A60D0E901235A604A68824201D101
:102C900082684A60002202610868401E0860086875
:102CA00070470000034B036003F15400086080206C
:102CB000106070473C02002000F108014FF0FF3225
:102CC000C0E90112C160016100210160704700216B
:102CD0000161704730B50C68621C02D000F1080237
:102CE00002E0026904E01A4653681D68A542FAD959
:102CF00053684B6099608A60516008610168491CA3
:102D0000016030BD42684A6093688B609368596087
:102D1000916008610168491C016070470A4B0028F6
:102D20001A68D06802D040F0200001E020F02000B6
:102D3000D06018680029C16802D041F0800101E02C
:102D400021F08001C1607047F80100200148FEF7C2
:102D5000B5BA0000B00100200249002048800248B6
:102D6000FEF76CBAA8000020B0010020502080F3CC
:102D70001188BFF34F8FBFF36F8F0A494868401C1B
:102D8000486001280CD10848006810F0FF0F07D0F8
:102D9000502080F31188BFF34F8FBFF36F8FFEE792
:102DA000704700007800002004ED00E00849486802
:102DB00028B1401E486001D180F31188704750202F
:102DC00080F31188BFF34F8FBFF36F8FFEE70000D2
:102DD0007800002070B500282AD0164DA0F1080414
:102DE00060686969084207D1502080F31188BFF3F9
:102DF0004F8FBFF36F8FFEE722683AB1502080F308
:102E00001188BFF34F8FBFF36F8FFEE78843606079
:102E100000F0D6F860686968084468602046FFF7EB
:102E20000FFE2869401C2861BDE8704000F022BBFD
:102E300070BD0000580000204FF0E020002101612B
:102E4000816105494FF47A720968B1FBF2F1491EBC
:102E500041610721016170471800002010B5020090
:102E600014D00F48006B38B1502080F31188BFF3A5
:102E70004F8FBFF36F8FFEE700F0A2F800211046DE
:102E8000FFF784FC00F0F6FA002807D105494FF05F
:102E900080500860BFF34F8FBFF36F8F10BD0000ED
:102EA0001C00002004ED00E070B50446FFF75EFF53
:102EB000254D04B92C68201DFFF7E0FE58B9E06AE3
:102EC000224A00EB800152F8211021B901218140F2
:102ED000286988432861A06A18B104F11800FFF737
:102EE000CDFE686A401C68622868844208D1174891
:102EF000211DC830FFF706FF6868401C686007E0C6
:102F0000A868401EA8602046FFF7E0FCFFF7BEFD62
:102F1000FFF74CFF6869002814D02868844211D15B
:102F2000286B38B1502080F31188BFF34F8FBFF367
:102F30006F8FFEE706494FF080500860BFF34F8F58
:102F4000BFF36F8F70BD00001C000020D80400206C
:102F500004ED00E010B586B00024039405AA04A98E
:102F600003A80494FFF79EFEDDE903010094CDE978
:102F7000011000230EA11048059A00F0E8F90F494E
:102F80000028C86211D0502080F31188BFF34F8F02
:102F9000BFF36F8F4FF0FF30886201204861CC6033
:102FA00006B0BDE8104000F02BB906B010BD00001F
:102FB00049444C45000000004D2900081C00002039
:102FC0000248016B491C0163704700001C0000208F
:102FD000144A106B10B10120D06170470020D061FD
:102FE00010691149B0FA80F0C0F11F0000EB8000B9
:102FF00051F820306BB101EB800000F1080341680B
:1030000049684160994201D149684160C8681060CF
:103010007047502080F31188BFF34F8FBFF36F8F3D
:10302000FEE700001C000020D804002005490246ED
:1030300000204B78002B04D00878107000204870D6
:1030400001207047A600002002490020487001209E
:1030500070470000A6000020024901224A70087053
:1030600010467047A600002004490A6909684968AB
:103070000AB101F07F01017001207047F8010020C2
:1030800010B5134C20B1012804D002280CD101E066
:10309000104820606160082A06D10020A0602BB192
:1030A000012B08D0022B03D0002010BD206105E0C9
:1030B0004FF4806101E04FF4C06121610C21E060B8
:1030C000C4E90510E0610248FEF762FB012010BD73
:1030D000F8010020004400400249096848600120CE
:1030E00070470000F8010020014908800120704766
:1030F000A800002038B5174C0025207808B1FDF74E
:10310000AAF96846FFF7B0FF617831B1124A012988
:1031100007D0022910D0032901D1FFF71DFE284650
:1031200038BD0020A0809DF80000A1880A44491CF9
:10313000A180107002200BE0A088FF2807D89DF81E
:103140000010A0880244401CA0801170E5E7032015
:103150006070E2E7AC000020E841002070B50E4D41
:103160000024687870B102280BD003280DD068784D
:1031700058B16878022808D06878032805D0FDF790
:103180006AF90120FFF768FF0446FFF7DFFD012021
:103190006870204670BD0000AC00002070B5174C70
:1031A00000256078012801D0FDF755F9217811B18B
:1031B000012920D104E000210120FFF7AFFD1AE032
:1031C000608860B1FFF716FAA0680078FFF784FF07
:1031D000A068401CA0606088401E60800BE0FFF784
:1031E00001FA0320FFF738FF054600210120FFF711
:1031F00095FD00202070284670BD0000AC00002026
:103200001CB537480168374A914207D1502080F3F6
:103210001188BFF34F8FBFF36F8FFEE7006831490E
:10322000491E884207D1502080F31188BFF34F8F89
:10323000BFF36F8FFEE72C4908780190FF200870DC
:1032400008788DF800009DF800009DF8002000F03F
:10325000F000904207D0502080F31188BFF34F8FC9
:10326000BFF36F8FFEE79DF80000204C00F0500088
:1032700020700720A06006E0401EA0609DF80000BE
:1032800040008DF800009DF800000006A068F3D40F
:10329000032807D0502080F31188BFF34F8FBFF36E
:1032A0006F8FFEE74FF44070A060019808700C48E3
:1032B0002030016841F470010160016841F0704103
:1032C0000160FFF7B9FD00206060FCF7F1FF0848DE
:1032D000016841F040410160FCF7D6FF00201CBDB1
:1032E00000ED00E071C20F4100E400E07800002032
:1032F00034EF00E02DE9FF5F8346DDE90E87994654
:1033000016468A469000FFF7F7FB05001CD05420B4
:10331000FFF7F2FB040014D00020256384F851006D
:10332000CDE90240CDE900874B463246514658462A
:10333000FFF73AFB2046FFF761FA012004B0BDE831
:10334000F09F2846FFF746FD4FF0FF30F6E7F0B557
:1033500085B00546DDE90B040A9EA8B1E4B1542707
:1033600000972063022084F851000020CDE902403C
:1033700004AF2846CDE90067FFF716FB2046FFF7AC
:103380003DFA049805B0F0BD502080F31188BFF3DA
:103390004F8FBFF36F8FFEE7502080F31188BFF38C
:1033A0004F8FBFF36F8FFEE72DE9F0412F4F0026BF
:1033B000386B28B1B869401CB8613046BDE8F0816F
:1033C000FD686D1CFD6013D1786B006838B150202A
:1033D00080F31188BFF34F8FBFF36F8FFEE7786BD9
:1033E000B96B7963B863386A401C3862FFF74EFBEB
:1033F000B86ADFF87C80854209D3786B0068A0B199
:10340000786BC068C4686068854211D2B862386859
:10341000C06A00EB800158F82100012800D901267C
:10342000F8690028C9D00126C7E74FF0FF30EDE763
:10343000201DFFF723FCA06A18B104F11800FFF764
:103440001DFCE06A01213A6981401143396100EBBA
:10345000800108EB8100211DFFF754FCE06A396808
:10346000C96A8842C9D30126C7E700001C000020B2
:10347000D80400202DE9F0472C4D00242746286B66
:1034800038B1FFF773FC286B401E2863286B40B1EE
:1034900046E0502080F31188BFF34F8FBFF36F8F4A
:1034A000FEE7A86822490126D0B3A1F1B4098846F5
:1034B000D8F80010E9B1D8F80C00C46804F118007D
:1034C000FFF7DCFB201DFFF7D9FBE06A2A6906FA4B
:1034D00000F11143296100EB800109EB8100211DFE
:1034E000FFF710FCE06A2968C96A8842E0D3EE6100
:1034F000DEE70CB1FFF7CAFAAC693CB1FFF754FF45
:1035000000B1EE61641EF9D10020A861E86938B10C
:103510000849012738070860BFF34F8FBFF36F8F4B
:10352000FFF744FC3846BDE8F08700001C0000208F
:103530008C05002004ED00E04FF04070E1EE100A31
:1035400070470000A0370008091A000800000000BA
:10355000000000000001000000000000000000006A
:10356000943700084B190008FEFF0000000000001F
:10357000000100000000000000000000000000004A
:103580000000000001020304060708090000000013
:103590000102030400C1814001C0804101C080419B
:1035A00000C1814001C0804100C1814000C1814013
:1035B00001C0804101C0804100C1814000C1814003
:1035C00001C0804100C1814001C0804101C08041F3
:1035D00000C1814001C0804100C1814000C18140E3
:1035E00001C0804100C1814001C0804101C08041D3
:1035F00000C1814000C1814001C0804101C08041C3
:1036000000C1814001C0804100C1814000C18140B2
:1036100001C0804101C0804100C1814000C18140A2
:1036200001C0804100C1814001C0804101C0804192
:1036300000C1814000C1814001C0804101C0804182
:1036400000C1814001C0804100C1814000C1814072
:1036500001C0804100C1814001C0804101C0804162
:1036600000C1814001C0804100C1814000C1814052
:1036700001C0804101C0804100C1814000C1814042
:1036800001C0804100C1814001C0804101C0804132
:1036900000C1814000C0C101C30302C2C60607C702
:1036A00005C5C404CC0C0DCD0FCFCE0E0ACACB0B72
:1036B000C90908C8D81819D91BDBDA1A1EDEDF1FA2
:1036C000DD1D1CDC14D4D515D71716D6D21213D392
:1036D00011D1D010F03031F133F3F23236F6F73742
:1036E000F53534F43CFCFD3DFF3F3EFEFA3A3BFB32
:1036F00039F9F83828E8E929EB2B2AEAEE2E2FEFE2
:103700002DEDEC2CE42425E527E7E62622E2E32351
:10371000E12120E0A06061A163A3A26266A6A76781
:10372000A56564A46CACAD6DAF6F6EAEAA6A6BABF1
:1037300069A9A86878B8B979BB7B7ABABE7E7FBF21
:103740007DBDBC7CB47475B577B7B67672B2B37311
:10375000B17170B0509091519353529296565797C1
:10376000559594549C5C5D9D5F9F9E5E5A9A9B5BB1
:1037700099595898884849894B8B8A4A4E8E8F4F61
:103780008D4D4C8C448485458747468682424383D1
:10379000418180404D6F644275735461736B0000CA
:1037A00064656661756C745461736B00CC37000896
:1037B0000000002068010000C4010008183800085B
:1037C00068010020F0A1000020020008C13201823F
:1037D00010036124F41AAA010138022B02321113DA
:1037E00071213308041373203308031A150829ECD8
:1037F0001381223308061AEB2032171AD51832012A
:1038000013311F3308051A9518320F1A1D28297411
:083810001AA3180134000000A6
:040000050800018965
:00000001FF
