:020000040800F2
:10000000F063002029020008771B0008FD19000892
:10001000751B0008AD050008B121000800000000B4
:10002000000000000000000000000000E91B0008C4
:10003000AF05000800000000791B0008EB1B00085A
:10004000430200084302000843020008430200087C
:10005000430200087B1B0008B1050008CD0500081D
:10006000430200084302000843020008430200085C
:10007000430200084302000843020008430200084C
:10008000430200084302000843020008430200083C
:10009000430200084302000843020008D505000897
:1000A00043020008430200088D1C000843020008B8
:1000B000991C00084302000843020008430200089C
:1000C00043020008430200084302000843020008FC
:1000D00043020008430200085121000843020008BF
:1000E00043020008430200084302000843020008DC
:1000F00043020008430200084302000843020008CC
:1001000043020008430200084302000843020008BB
:100110004302000843020008A51C0008B11C0008A7
:10012000430200084302000843020008430200089B
:10013000430200084302000843020008430200088B
:10014000430200084302000843020008430200087B
:10015000430200084302000843020008430200086B
:10016000430200084302000843020008430200085B
:100170004302000843020008430200080000000098
:10018000430200084302000800F002F800F03CF8C7
:100190000AA090E8000C82448344AAF10107DA45E2
:1001A00001D100F031F8AFF2090EBAE80F0013F0F8
:1001B000010F18BFFB1A43F001031847502D000030
:1001C000702D0000103A24BF78C878C1FAD85207C1
:1001D00024BF30C830C144BF04680C6070470000C1
:1001E0000023002400250026103A28BF78C1FBD840
:1001F000520728BF30C148BF0B6070471FB502F0DF
:1002000073FD1FBD10B510BD00F07EF91146FFF75C
:10021000F5FF02F09DFB00F09CF903B4FFF7F2FF3D
:1002200003BC00F013F90000094880470948004763
:10023000FEE7FEE7FEE7FEE7FEE7FEE7FEE7FEE796
:10024000FEE7FEE704480549054A064B70470000F3
:100250007D1C000889010008F0030020F0630020E5
:10026000F0230020F023002053EA020C00F0698004
:100270002DE9F04B4FF00006002B1FBFB3FA83F5BA
:1002800003FA05F424FA05F65E4012BF1643B2FAEB
:1002900082F502FA05F4C5F120051EBF22FA05FC1D
:1002A00044EA0C04203556EA044C4FEA144418BFC3
:1002B000641C4FF000084FF00009904271EB030CF2
:1002C00039D3002919BFB1FA81F701FA07F6B0FA5C
:1002D00080F700FA07F6C7F120071EBF20FA07FCD7
:1002E00046EA0C062037B6FBF4FCA7EB0507103FE7
:1002F00007F01F0BCBF120060CFA0BFB2CFA06F6CD
:1003000044BFB3460026202FA4BF5E464FF0000B2B
:100310005BEA060C08BF4FF0010B19EB0B09ABFBB6
:10032000027C48EB0608C01B06FB02CC0BFB03CC8F
:1003300071EB0C01C1E70B46024641464846BDE859
:10034000F08B13B54FF000004FF00001AFF30080C9
:10035000BDE81C40704710B5002000F07DF8FFF7A5
:1003600051FFBDE81040012000F070B8032A40F2B0
:10037000308010F0030C00F0158011F8013BBCF147
:10038000020F624498BF11F801CB00F8013B38BF5F
:1003900011F8013BA2F1040298BF00F801CB38BF6D
:1003A00000F8013B11F0030300F05D80083AC0F053
:1003B000088051F8043B083A51F804CBA0E8081033
:1003C000F5E7121D5CBF51F8043B40F8043BAFF366
:1003D0000080D20724BF11F8013B11F801CB48BFC0
:1003E00011F8012B24BF00F8013B00F801CB48BFF6
:1003F00000F8012B70474FF0000200B513469446F9
:100400009646203922BFA0E80C50A0E80C50B1F16C
:100410002001BFF4F7AF090728BFA0E80C5048BF80
:100420000CC05DF804EB890028BF40F8042B08BF1E
:10043000704748BF20F8022B11F0804F18BF00F81A
:10044000012B704770477047704700000149182022
:10045000ABBEFEE72600020010B500F03DF8BDE897
:10046000104000F033B810B5203AC0F00B80B1E86E
:100470001850203AA0E81850B1E81850A0E81850D9
:10048000BFF4F5AF5FEA027C24BFB1E81850A0E8E2
:10049000185044BF18C918C0BDE810405FEA827CFC
:1004A00024BF51F8043B40F8043B08BF7047D20713
:1004B00028BF31F8023B48BF11F8012B28BF20F8B4
:1004C000023B48BF00F8012B70477047002801D05D
:1004D000FFF7BCBF7047000010B5002102A000F07C
:1004E00041F8012010BD0000534947414252543A9F
:1004F0002041626E6F726D616C207465726D696E01
:100500006174696F6E000000754600F04BF8AE46EE
:1005100005006946534620F00700854618B020B50F
:10052000FFF790FEBDE820404FF000064FF00007B7
:100530004FF000084FF0000B21F00701AC46ACE88B
:10054000C009ACE8C009ACE8C009ACE8C0098D46F8
:10055000704710B50446AFF300802046BDE8104058
:10056000FFF75BBE70B505460C460A2000E06D1C27
:1005700000F011F835B128780028F8D102E0641CA9
:1005800000F009F814B120780028F8D1BDE87040D7
:100590000A20AFF3008008B569468DF800000320FB
:1005A000ABBE08BD004870478C030020FEE77047D3
:1005B0000448008818B104480168491C0160012002
:1005C00000F0C2B8140000201C000020022000F03F
:1005D000BBB8000010B5064C01202070000200F0EE
:1005E000B3F84FF4007000F0AFF80020207010BD99
:1005F000000000202DE9F0410446876D00F0A2F9CB
:10060000054694F835000026022806D08020606553
:1006100084F834600120BDE8F0812068016821F091
:10062000160101602068416921F080014161206C60
:1006300008B9A06C20B12068016821F008010160B0
:100640002068016821F0010101600CE000F07AF9F6
:10065000401B052807D920206065032084F8350059
:1006600084F83460D7E720680068C007EED194F8BA
:100670005C103F208840B860012084F8350084F881
:1006800034600020C7E790F83510022903D080219C
:10069000416501207047052180F835100068016828
:1006A00021F00101016000207047000070B5044690
:1006B00000F048F90546601C02D004480078044464
:1006C00000F040F9401BA042FAD370BD04000020A6
:1006D00070B54FF480711A4A1A4C884216D11046F0
:1006E00000F026F90125012806D0A08800B1E58098
:1006F000BDE8704002F0B0B902F0C6F920880028C9
:1007000003D06580A068401CA06070BD4FF40071EC
:100710008842FAD1104600F00BF9012807D0E08892
:1007200008B100206080BDE8704002F09DB902F081
:10073000ABF960880028E8D0E068401CE06070BD3C
:100740000014024014000020044910B50A68024257
:1007500002D00860FFF7BCFF10BD0000143C014050
:100760002DE9F84FDFF89C91002209F1040A0AF103
:10077000040B03274FF00F0C0BF1040E01250B683F
:1007800095402B40AB426ED10C7904F00304012C50
:1007900001D0022C15D18668540007FA04F826EA25
:1007A0000806D1F80C8008FA04F848EA0608C0F8F0
:1007B00008804468AC430D79C5F300159540254386
:1007C00045600C79E443A40708D0C568540007FAD3
:1007D00004F6B5438E68A6402E43C6600C7904F03B
:1007E0000304022C11D1D40800EB8406356A5407A7
:1007F000E40E0CFA04F825EA0805D1F8108008FA8E
:1008000004F848EA0508C6F820800568540007FA8D
:1008100004F6B5430E7906F00306A6402E430660A3
:100820004C6814F4403F66D0374C256845F4804549
:100830002560246822F0030504F480440094334CBE
:1008400005EB0408D8F808589407260F0CFA06F4AC
:10085000A5432F4CA04201D1002424E02D4CA042FE
:1008600002D101241FE046E02B4CA04201D102241A
:1008700019E02A4CA04201D1032414E0284CA042E4
:1008800001D104240FE0274CA04201D105240AE045
:10089000254CA04201D1062405E0244CA04201D100
:1008A000072400E00824B4402C43C8F80848D9F8CD
:1008B00000404D464E689C43F60300D51C432C6017
:1008C000DAF8004055464E689C43B60300D51C43F9
:1008D0002C60DBF800405D464E689C43F60200D574
:1008E0001C432C60DEF8004075464E689C43B602FF
:1008F00000D51C432C60521C102AFFF43FAFBDE80A
:10090000F88F0000003C01404438024000300140B4
:10091000000002400004024000080240000C0240B7
:10092000001002400014024000180240001C024067
:100930000069084000D0012070470AB1816170470A
:100940000904FBE7014880687047000004000020AC
:1009500002488168027811448160704704000020D9
:100960000B4810B5016841F400710160016841F461
:1009700080610160016841F480710160032000F032
:1009800091F80F2000F006F800F03EF8002010BDAE
:10099000003C024010B5014688B000221A2000F049
:1009A00061F81A2000F050F813480024016841F45F
:1009B00080210160006805A900F480200690684647
:1009C00000F01CF900F04AF90C494000B0FBF1F1CD
:1009D0000C480B4A491E026040F2E732C0E903248A
:1009E000C0E9011400F070FB10B1012008B010BD87
:1009F000044800F0C9FBF9E74438024040420F00C8
:100A000000480140140200200E4808B5016841F476
:100A100080410160006800F4804000900948001F98
:100A2000016841F0805101600068002200F08050B0
:100A300000901146052000F015F8BDE8084005209B
:100A400000F002B844380240002809DB00F01F0221
:100A5000012191404009800000F1E020C0F8001120
:100A600070470000F0B40E4B1B68C3F30223C3F1C0
:100A70000704042C00D904241D1D072D01D20023D6
:100A800000E0DB1E012606FA04F56D1E0D409D40B8
:100A90009E40761E164045EA0601F0BC01F0BEBB42
:100AA0000CED00E0064A00F0070110684FF6FF0366
:100AB000184040EA012003490843106070470000D5
:100AC0000CED00E00000FA052DE9F0470D460400AA
:100AD00065D0DFF81491D9F80000EFB200F00700FC
:100AE000A84207D289F80070D9F8000000F007008A
:100AF000A84254D120683D4E810712D5400703D546
:100B0000306840F4E05030602078000703D530684A
:100B100040F4604030603068A16820F0F000084385
:100B200030602078C0072DD030496068083901282E
:100B300012D0022813D0032811D009688907002990
:100B40002DDA316821F0030101433160FFF7FAFE2D
:100B5000804641F2883A0EE009688903EFE70968A8
:100B60008901ECE7FFF7EEFEA0EB0801514502D941
:100B70000320BDE8F0873068616800F00C00B0EB3E
:100B8000810FEFD1D9F80010484601F00701A942C2
:100B900007D90770006800F00700A84201D00120C3
:100BA000E7E72078400705D53068E16820F4E05099
:100BB000084330602078000706D53068216920F4AA
:100BC000604040EAC100306000F058F83168084ADF
:100BD000C1F30311515CC84006490860064800682B
:100BE000FFF7D8FE0020C4E7003C0240083802406E
:100BF000F22C000810000020080000200F220260E4
:100C00000C4A136803F003034360136803F0F00316
:100C10008360136803F4E053C36012684FF4E05339
:100C200003EAD20202610448006800F0070008608D
:100C30007047000008380240003C02400448054963
:100C400000680968044AC1F38221515CC8407047BA
:100C50001000002008380240022D00080448054911
:100C600000680968044AC1F34231515CC8407047CA
:100C70001000002008380240022D0008154810B569
:100C8000006810F00C01144813D0431004290FD051
:100C900008290ED10F4C241F216801F03F02216862
:100CA000490207D52068C0F38810A0FB030106E0C5
:100CB000184610BD2168C1F38811A1FB0001002373
:100CC000FFF7D2FA2168C1F30141491C4900B0FB8A
:100CD000F1F010BD083802400024F4002DE9F84F6F
:100CE000040075D02078DFF838A3C007AAF1040506
:100CF00048D00AF104000168C1F38101012908D03C
:100D00000068C0F3810002280AD1DAF8000040022E
:100D100006D52868800335D560680028E1D031E029
:100D20006068B0F5803F10D0B0F5A02F286810D0D3
:100D300020F480302860286820F4802028606068D3
:100D4000A0B1FFF7FFFD06460CE0286840F48030B4
:100D5000F4E740F480202860F7E7FFF7F3FD801BFD
:100D6000642871D828688003F7D50BE0FFF7EAFD07
:100D7000064604E0FFF7E6FD801B6428F1D82868EA
:100D80008003F7D42078DFF89C9280074FF0000BA7
:100D90003DD5A348001D016811F00C0F08D0006874
:100DA000C0F3810002280AD1DAF80000400206D41C
:100DB0002868800715D5E068012809D111E0E068AE
:100DC000B8B10120C9F80000FFF7BCFD064605E0F8
:100DD00022E1FFF7B7FD801B0228C2D828688007F0
:100DE000F7D52868216920F0F80040EAC1002860A2
:100DF0000DE0C9F800B0FFF7A5FD064604E0FFF7D7
:100E0000A1FD801B02281FD828688007F7D420780E
:100E1000000722D5824F84486169703771B1012182
:100E20000160FFF78FFD064604E0FFF78BFD801B96
:100E3000022809D838688007F7D50EE0C0F800B05E
:100E4000FFF780FD064605E082E0FFF77BFD801B93
:100E500002287DD838688007F7D42078400765D508
:100E60006F484FF000083C300068C0000BD46C485D
:100E70003C30016841F08051016000684FF001088A
:100E800000F080500090694F3868C0050FD4386872
:100E900040F480703860FFF755FD064604E0FFF728
:100EA00051FD801B022853D83868C005F7D55C4F28
:100EB000A0686C3701280FD00528386810D020F0C2
:100EC00001003860386820F004003860A068B0B1D4
:100ED000FFF738FD06460EE0386840F00100F4E701
:100EE00040F004003860F7E7FFF72CFD811B41F26A
:100EF0008830814263D838688007F5D50DE0FFF768
:100F000021FD064606E0FFF71DFD811B41F28830FA
:100F1000814254D838688007F5D4B8F1000F05D065
:100F20003F483C30016821F080510160A069B8B3AE
:100F30003B49091D0968C1F38101022946D00228F5
:100F4000584606D0C9F86000FFF7FCFC044639E0BB
:100F500035E04F46C9F86000FFF7F4FC064604E0B0
:100F6000FFF7F0FC801B022829D828688001F7D4FD
:100F7000D4E907010843A16A2D4A490802EB01415F
:100F8000626A41EA8211084394F82C1040EA016138
:100F9000CAF8001001203866FFF7D4FC044605E0CB
:100FA0003CE0FFF7CFFC001B022808D8286880012E
:100FB000F7D533E0FFF7C6FC001B022802D9032057
:100FC000BDE8F88F28688001F4D427E00128F7D025
:100FD000DAF80000E26900F4800191421CD1226A33
:100FE00000F03F01914217D147F6C071626A01409B
:100FF000B1EB821F10D1A26A4FF0FF3300F44031F1
:1010000003EB5202B1EB024F06D194F82C1000F022
:101010007060B0EB016F01D00120D1E70020CFE775
:101020000438024000004742800E474200700040F2
:101030000000FFFF7047704770B590F83C20012A10
:1010400032D0012580F83C50022280F83D20026811
:101050005368946823F070060B6833435360134B56
:1010600002689A4214D0B2F1804F11D0104B9A42CC
:101070000ED0104B9A420BD00F4B9A4208D00F4B18
:101080009A4205D00E4B9A4202D00E4B9A4204D19E
:10109000496824F080031943916080F83D50002195
:1010A00080F83C10084670BD022070BD0000014071
:1010B0000004004000080040000C00400004014013
:1010C000004001400018004010B5040003D094F81F
:1010D0003D0010B107E0012010BD002084F83C0065
:1010E000204600F01FF8022084F83D00211D2068F2
:1010F00000F0E4FD012084F8460084F83E0084F806
:101100003F0084F8400084F8410084F8420084F8ED
:10111000430084F8440084F8450084F83D00002032
:1011200010BD000008B50068144A154990420ED160
:10113000086840F0100008600868002200F0100005
:10114000009011463620FFF78DFC362010E00D4A46
:10115000904211D1086840F0200008600868002221
:1011600000F02000009011463720FFF77BFC37206D
:10117000BDE80840FFF768BC08BD00000010004053
:10118000403802400014004090F83D10012901D081
:1011900001207047022180F83D100168CA6842F0C2
:1011A0000102CA6000681149884214D0B0F1804F32
:1011B00011D00F4988420ED00E4988420BD00E49FB
:1011C000884208D00D49884205D00D49884202D096
:1011D0000C49884204D1816801F00701062903D037
:1011E000016841F0010101600020704700000140EA
:1011F0000004004000080040000C004000040140D2
:1012000000400140001800400168CA6822F0010255
:10121000CA6001680A6A41F211131A4207D10A6AC8
:101220009B101A4203D10A6822F001020A600121D0
:1012300080F83D1000207047704770B50446006884
:1012400001694FF00005C943890715D4C168C94336
:10125000890711D4E91E0161012020772068806987
:101260008007204602D0FFF7E7FF04E000F0E7F830
:10127000204600F0B3F9257720680169C943490782
:1012800017D4C168C943490713D46FF00401016141
:10129000022020772068806910F4407F204602D029
:1012A000FFF7CAFF04E000F0CAF8204600F096F904
:1012B000257720680169C943090716D4C168C94365
:1012C000090712D46FF0080101610420207720681B
:1012D000C0698007204602D0FFF7AEFF04E000F0AF
:1012E000AEF8204600F07AF9257720680169C943F5
:1012F000C90617D4C168C943C90613D46FF01001D9
:101300000161082020772068C06910F4407F2046E2
:1013100002D0FFF791FF04E000F091F8204600F0C2
:101320005DF9257720680169C943C90708D1C168FB
:10133000C943C90704D1891E0161204600F050F954
:1013400020680169C943090609D4C168C94309066F
:1013500005D46FF0800101612046FFF76BFE206825
:101360000169C943490609D4C168C943490605D47E
:101370006FF040010161204600F098F92068016992
:10138000C94389060BD4C168C943890607D46FF0E5
:10139000200101612046BDE87040FFF74CBE70BDE2
:1013A00010B586B0044614216846FFF724F820687B
:1013B000B0F1804F14D10B480021026842F00102C5
:1013C0000260006800F00100059002200090CDE965
:1013D00001010120CDE9031069460348FFF7C0F978
:1013E00006B010BD303802400000024070B504461F
:1013F00090F83C00002501280FD0012084F83C0023
:101400006AB1042A0FD0082A11D00C2A13D0012562
:10141000002084F83C00284670BD022070BD206882
:1014200000F0BEFCF4E7206800F0EAFCF0E720687A
:1014300000F01CFDECE7206800F04CFDE8E7704789
:1014400010B5040003D094F83D0010B107E001206E
:1014500010BD002084F83C00204600F01FF8022058
:1014600084F83D00211D206800F028FC012084F84C
:10147000460084F83E0084F83F0084F8400084F879
:10148000410084F8420084F8430084F8440084F862
:10149000450084F83D00002010BD000008B500683C
:1014A000B0F1804F12D10A48016841F0010101609A
:1014B0000068002200F00100009011461C20FFF798
:1014C000D1FABDE808401C20FFF7BEBA08BD0000F5
:1014D0004038024030B50446002549B104290AD0FD
:1014E00008290BD094F8410001280AD0012030BD12
:1014F00094F83E00F8E794F83F00F5E794F84000D0
:10150000F2E7022071B104290FD0082910D084F825
:10151000410081B1042913D0082947D00C294AD0B1
:10152000012541E084F83E00F3E784F83F00F0E74E
:1015300084F84000EDE72068C26842F0020203E050
:101540002068C26842F00402C2600122206800F0F4
:1015500019FC1B4920681B4A884201D0904203D1E4
:10156000436C43F4004343642068884213D0B0F1D5
:10157000804F10D0144988420DD0144988420AD0B7
:101580001349884207D0904205D01249884202D0C0
:101590001149884204D1816801F00701062903D06E
:1015A000016841F001010160284630BD2068C26831
:1015B00042F00802C8E72068C26842F01002C3E7A0
:1015C0000000014000040140000400400008004009
:1015D000000C00400040014000180040704700002F
:1015E0002DE9F041044600682149884201D1FFF706
:1015F000AFF920492068002488420DD11E4908888F
:10160000401C80B208801D4A128890422DD30C8065
:10161000BDE8F04101F01ABA1949884225D11948AC
:101620000168491C016018490978184D184F194E76
:10163000DFF8648021B9296839603268C8F8002071
:101640000168164A126891420FD104601448048060
:101650001449012008801448FFF7D6FD2868386037
:101660003168C8F800102C603460BDE8F0810000DB
:1016700000480140001400403A00002038000020DB
:101680000010004030000020000000201C0000205E
:101690002400002020000020280000202C00002032
:1016A00014000020180000204001002070477047FF
:1016B00070470000F8B5016804460868CA684B69BD
:1016C00010F00F0F4FF0000559D003F0010602F49F
:1016D0009077374365D0C10705D0D10503D5216C7C
:1016E00041F001012164410705D5D90703D0216CE0
:1016F00041F002012164810705D5D90703D0216C8F
:1017000041F004012164010707D502F020013143B3
:1017100003D0216C41F008012164216C00293AD0EA
:10172000800604D5900602D5204600F02AFC2068E9
:101730004069216CC0F38010090700D460B32046D3
:1017400000F0F8FB20684069400621D5206814307D
:1017500050E8001F21F0400140E80012002AF5D1B6
:10176000A06BA8B16C490165A06BFEF78CFF002847
:1017700011D0A06B016D01B0BDE8F04008478306B1
:101780000FD593060DD52046BDE8F84000F0F9BB13
:101790002046FFF78DFFF8BD2046FFF789FF25643F
:1017A000F8BD266B2023012E79D1C60677D5D60643
:1017B00075D50868486800904869400640D5A16B17
:1017C000086840680004000CEAD0A28D8242E7D984
:1017D000E085C869B0F5807F2DD020680C3050E8D6
:1017E000001F21F4807140E80012002AF5D1206822
:1017F000143050E8001F21F0010140E80012002AD7
:10180000F5D12068143050E8001F21F0400140E875
:101810000012002AF5D184F83E30256320680C3090
:1018200050E8001F21F0100140E80012002AF5D115
:10183000A06BFEF7DFFEA08DE18D401A81B229E09A
:10184000A08DE18D401A81B2E08D0028A8D000293A
:10185000A6D020680C3050E8002F22F4907240E8A7
:101860000026002EF5D12068143050E8002F22F019
:10187000010240E80026002EF5D184F83E302563B1
:1018800020680C3050E8002F22F0100240E80023BE
:10189000002BF5D12046FFF70AFFF8BDFFE705064C
:1018A0002BD5150629D594F83D002128F5D1A0683F
:1018B000B0F5805F01D12069B0B1206A411C21627E
:1018C000216800784860E08C401E0004000CE08431
:1018D000E3D12068C16821F08001C1602068C1683F
:1018E00041F04001C160D8E7206A0088C0F30800D9
:1018F0004860206A801C2062E5E74006CDD550068E
:10190000CBD5CA68204622F04002CA6084F83D3038
:1019100000F073F8C1E70000251F000870B504004F
:1019200004D094F83D00002510B106E0012070BD00
:1019300084F83C50204600F023F8242084F83D0031
:101940002068C16821F40051C160204600F07AFB94
:101950002068016921F4904101612068416921F00A
:101960002A0141612068C16841F40051C1602564C9
:10197000202084F83D0084F83E00002070BD000067
:1019800010B586B0044614216846FEF734FD1749A9
:101990002068884228D116480021026842F40032AB
:1019A0000260006800F400300590114810380268A9
:1019B00042F001020260006800F0010005900C2076
:1019C00000900220CDE9010103200390072004903C
:1019D00069460848FEF7C4FE002211462620FFF79C
:1019E00041F82620FFF730F806B010BD0044004053
:1019F000403802400000024070477047FEE7000098
:101A00002DE9F04387B014216846FEF7F4FC39480D
:101A10000024016841F020010160016801F020010B
:101A20000591016841F080010160016801F08001C9
:101A30000591016841F001010160016801F00101B7
:101A40000591016841F0080101600068DFF8A88095
:101A500000F008000590002210214046FEF76DFFBF
:101A6000DFF898904FF46047002239464846FEF769
:101A700064FF4FF440704FF44416CDE90006694608
:101A800002941F48FEF76CFE10200125CDE90005E9
:101A90000220CDE9020469464046FEF761FE009748
:101AA000CDE90154694648460394FEF759FE0320E8
:101AB000CDE90006694602944846FEF751FE06212C
:101AC00000220846FEF7CEFF0620FEF7BDFF0022EB
:101AD00006210720FEF7C6FF0720FEF7B5FF00220C
:101AE00011461720FEF7BEFF1720FEF7ADFF07B027
:101AF000BDE8F0833038024000000240000C024094
:101B00000014024010B58AB0002407941C216846D6
:101B10000894FEF770FC16484FF08041016040F2D7
:101B20004731C0E901140921C0E903148461FFF7BA
:101B300087FC08B172B6FEE7079407A90C48089421
:101B4000FFF77AFA08B172B6FEE730200090032062
:101B5000CDE901040422694605480494FFF746FCD8
:101B600008B172B6FEE70248FFF71AFC0AB010BDD2
:101B7000F8000020FEE7FEE77047704749F60A527A
:101B8000104480B2A0F51D4010B5124A0A3804284E
:101B900019D2DFE800F002181419012913D10E49F7
:101BA000002008800D4A108008800D49012008801F
:101BB0000C48FFF7E9FABDE8104000F05DBF4FF4B4
:101BC0007A704143116010BD106840EA0140106016
:101BD00010BD00002C000020160000201A0000207C
:101BE00014000020400100207047704730B593B0CA
:101BF00030216846FEF7FFFB14210CA8FEF7FBFB23
:101C00001C480025016841F080510160006800F027
:101C1000805011901848016841F4804101600068CB
:101C2000022400F4804011900120009000040190F3
:101C30008001CDE9064008200890A820CDE90904DC
:101C400004200B906846FFF749F808B172B6FEE72A
:101C50000CA90F2081E831004FF480500F901090B4
:101C600002210CA8FEF730FF002801D072B6FEE773
:101C700013B030BD40380240007000400248016897
:101C800041F470010160704788ED00E00148FFF702
:101C9000D4BA0000140200200148FFF7CEBA0000B9
:101CA000F80000200148FFF7C8BA000040010020FA
:101CB0000148FFF7C2BA000088010020F0B50268B1
:101CC000254D264E264FDFF89CC0274B4FF0804E07
:101CD000A84209D0704507D0B04205D0B84203D021
:101CE000604501D0984203D122F070044A68224333
:101CF000A8421BD0704519D0B04217D0B84215D0B9
:101D0000604513D0984211D0184CA0420ED0184C08
:101D1000A0420BD0174CA04208D0174CA04205D0CF
:101D2000164CA04202D0164CA04203D122F44074BB
:101D3000CA6822434C6922F08002224302608A680A
:101D4000C2620A688262A84201D0984201D1096940
:101D5000016301214161F0BD000001400004004029
:101D600000080040000C0040000401400040014019
:101D7000004401400048014000180040001C0040A1
:101D80000020004010B501F01F010123046A8B40C0
:101D90009C430462036A8A401343036210BD00003F
:101DA000F0B5026A22F001020262026A43688469A5
:101DB000114E24F073050C68104F2C4322F00205DD
:101DC0008A682A43B04201D0B84205D122F0080502
:101DD000CA682A4322F00402B04201D0B84205D1B9
:101DE0004D6923F440731D438B692B434360846129
:101DF000496841630262F0BD0000014000040140F7
:101E0000F0B5026A22F010020262026A4368846935
:101E10000D6824F4E64444EA05248D6822F020028B
:101E200042EA05120F4D104EA84201D0B04206D131
:101E3000CF6822F0800242EA071222F04002A84254
:101E400001D0B04207D14D6923F4406343EA8503D2
:101E50008D6943EA85034360846149688163026256
:101E6000F0BD00000000014000040140F0B5026A2E
:101E700022F480720262026A4368C46922F400722A
:101E800024F073050C68124E2C438D6842EA05223B
:101E90000E4DA84201D0B04206D1CF6822F40062B4
:101EA00042EA072222F48062A84201D0B04207D160
:101EB0004D6923F4405343EA05138D6943EA051342
:101EC0004360C4614968C1630262F0BD0000014023
:101ED0000004014030B5026A22F480520262036AB3
:101EE0004268C4690D6824F4E64444EA05248D6818
:101EF00023F4005343EA0533084DA84202D0084DAD
:101F0000A84204D14D6922F4804242EA851242601F
:101F1000C46149680164036230BD000000000140F3
:101F20000004014010B5806B0021C185C184FFF71A
:101F3000BFFB10BD01680C3151E8002F22F49072F4
:101F400041E80023002BF5D10168143151E8002F3E
:101F500022F0010241E80023002BF5D1016B012999
:101F600009D101680C3151E8002F22F0100241E83C
:101F70000023002BF5D1202180F83E1000210163C1
:101F8000704708B590F83E10222901D0022008BD04
:101F900081684FF48053994201D1026922B1826A6B
:101FA00099421BD049B10AE00268816A5268C2F3C3
:101FB00008020A80816A891C08E0016971B1016820
:101FC000496801F07F011170816A491C8162C18DED
:101FD000491E0904090CC18503D019E0016849684C
:101FE000F1E70168CA6822F02002CA600168CA6885
:101FF00022F48072CA6001684A6922F001024A61D3
:10200000202180F83E10016B012903D0FFF7F4FC7A
:10201000002008BD0021016301680C3151E8002F48
:1020200022F0100241E80023002BF5D101680A6874
:10203000D20602D50A6849680091818DFFF737FB07
:10204000E6E7000070B5044600680169E26821F423
:10205000405111430161A1682069E269014360694F
:10206000104301432068C26849F20C639A430A4353
:10207000C26020684169A26921F440711143416145
:1020800031492068884202D03049884202D1FEF7A7
:10209000E5FD01E0FEF7D2FDE26900231921642588
:1020A0003226B2F5004F626828D0A0FB0101930FE1
:1020B0009200FEF7D9F80146B0FBF5F06FF0180278
:1020C000504301EB800006EB0010B0FBF5F000F090
:1020D000F002B1FBF5F002EB0012B1FBF5F06FF08E
:1020E0001803584301EB800006EB0010B0FBF5F03D
:1020F00000F00F0021681044886070BDA0FB010152
:1021000092185B41FEF7B0F80146B0FBF5F0020112
:10211000B1FBF5F06FF01803584301EB800006EBBC
:10212000C000B0FBF5F000F0F80002EB4002B1FB9C
:10213000F5F0584301EB800006EBC000B0FBF5F072
:1021400000F00700D6E70000001001400014014035
:1021500010B5044800F008F8BDE810400148FFF74A
:10216000A9BA0000D001002010B501680446086833
:10217000C968C0F3401001F0200118B111B10A483C
:102180000068804720680168C068C1F3C01100F092
:102190008000002906D0002804D004480068BDE86B
:1021A0001040004710BD0000680000206C000020B7
:1021B000FEE70000014649F60A52114430B58AB2E2
:1021C0001149A2F51D420020104B114C09680A3A32
:1021D000092A0AD2DFE802F005070A0C0E101209DC
:1021E00015000C4800E00C48008830BD88B230BDB6
:1021F000080C30BD186802E0186803E0206880B25F
:1022000030BD2068000C30BD2C00002024000020D0
:102210002800002014000020180000200907090EE3
:10222000002804DB00F1E02080F80014704700F083
:102230000F0000F1E02080F8141D7047024801688B
:10224000491C016070470000F4000020024801684A
:10225000491E016070470000F400002070B5064D73
:1022600000242878012802D00624204670BD286961
:10227000804700202870F8E74800002070B50C4621
:102280000988002605292FD1417840F2CF750A022E
:1022900081781143C278491C1302027989B21A432A
:1022A000531EAB4220D200232380012500F8015B9E
:1022B00023885B1C2380530703D005EBD203DDB2D8
:1022C00001E0C2F3C70500F8015B23885B1C238093
:1022D000002300F0E6FA18B100F0ACFB064604E07B
:1022E00020882844208000E00326304670BD70B569
:1022F0000C460988002605292FD1417840F2CF7578
:102300000A0281781143C278491C1302027989B20A
:102310001A43531EAB4220D200232380022300F82D
:10232000013B23885B1C2380530704D0012303EB6C
:10233000D203DDB201E0C2F3C70500F8015B2388D8
:102340005B1C238000F0AFFA18B100F073FB064667
:1023500004E020882844208000E00326304670BD39
:1023600070B50C4609880026052925D141780579E4
:102370000A0281781143491C6A1E89B27C2A1BD843
:1023800000222280032200F8012B22880023521C05
:1023900022806A0000F8012B2288521C22802A46E3
:1023A00000F084FA18B100F045FB064605E02088ED
:1023B00000EB4500208000E00326304670BD70B57C
:1023C0000C4609880026052927D1417882780579AD
:1023D00042EA0122521C91B2C27845EA02256A1EE5
:1023E0007C2A1AD200222280042200F8012B2288A3
:1023F000521C22806A0000F8012B2288521C228085
:102400002A4600F093FA18B100F014FB064605E0E6
:10241000208800EB4500208000E00326304670BD98
:102420002DE9F0410446088800270D460A2842D3CA
:10243000607826790102A078227A0843401C1FFAAE
:1024400080F8E07846EA00266079731E0102A079E0
:102450000843401C81B2E0797C2B42EA0022607A7A
:1024600028D83AB3792A25D8B0EB420F22D10123DC
:1024700004F10A0000F01AFA98B900212980172106
:1024800021702988601C491C2980710000F8011BFB
:1024900029880023491C29803246414600F006FA6B
:1024A00018B100F0C7FA074605E0288800EB46009F
:1024B000288000E003273846BDE8F08170B5064C5F
:1024C0000D4606492288401CFDF750FF2088401C1D
:1024D0002880002070BD0000340000205C02002035
:1024E00038B50988002405290BD141780A02817882
:1024F0001143491C027989B21AB9C278FF2A03D064
:1025000012B10324204638BD00228DF80120C07886
:10251000FF280CD08DF8002001231A46684600F0F1
:10252000C0F90028EED000F085FA0446EAE7012061
:102530008DF80000F0E710B509880024052902D0C5
:102540000324204610BD417801230A028178C01C73
:102550001143491C89B21A4600F0A8F90028F0D0AE
:1025600000F068FA0446ECE72DE9F0410D460988D1
:102570000024052926D941788278437942EA01224C
:10258000521C96B2C178027942EA0122510704D066
:10259000012101EBD201C9B201E0C2F3C701571E0C
:1025A000B7F5F66F0ED299420CD101233146801D4A
:1025B00000F077F918B100F03DFA044603E0052079
:1025C000288000E003242046BDE8F08170B50D4668
:1025D0000988002406291DD341780A028178114315
:1025E000C278491C1302027989B21A434379561EF4
:1025F000772E0FD85606360E9E420BD10123801D32
:1026000000F054F918B100F015FA044603E0052073
:10261000288000E00324204670BD00002DE9F04131
:102620001C46069B1746064629B1F72903D8134DC9
:10263000084629710EB102241BE011492961114994
:1026400069611149E9601149A9610021E9611049F5
:102650002962104969621049A9622246394600F090
:1026600077F8040005D100F063FA28B16E710120FB
:1026700028702046BDE8F0810324FAE748000020D6
:102680006528000889280008F52700089D2700080C
:10269000DD2B0008852C0008452C000838B52B4C94
:1026A000207808B1062038BD684600F033FA0128CA
:1026B00049D19DF80000E8B3012802D0022842D198
:1026C0000FE0224AA369921D911CC81F984788BB3E
:1026D00060782179884200D060BB022000F030FA97
:1026E00031E0A0680121194B0578A570E170002147
:1026F0002C3313F8312062B1AA4207D103EBC10198
:102700004A681249891D9047E07002E0491C10296F
:10271000EFDB607870B1E27882B10020E080A078D1
:1027200040F08001A0680170E188491C89B2E18015
:10273000425400E007E0E088401CE080D4E9021346
:10274000E28820799847002038BD0000480000202A
:102750002DE9F0411F4615460E460024FFF76EFD99
:102760003B4608222946304600F0FEF901280DD1EB
:10277000B5F5964F01D9232003E007496800B1FB66
:10278000F0F080B200F024FA012800D00324FFF713
:102790005DFD2046BDE8F081A07F17002DE9F041E6
:1027A0001646884607460024FFF748FD0F4DA888C7
:1027B000FF2801D9FDF7CFFDA888042804D3A988F4
:1027C0000B4800F069F928B10524FFF73FFD2046CA
:1027D000BDE8F081064800783870A888C01E3080B7
:1027E0000348401CC8F80000EFE700003C00002050
:1027F0007C0200202DE9F04791460D460746002651
:10280000FFF71CFD154C6078012805D00526FFF761
:102810001DFD3046BDE8F0876D1E4FF00108A56034
:102820002846A4F802802F70628802EB09016180BB
:10283000618800F031F96188094A5318491C6180A8
:102840001870010A60880244401C6080117084F88E
:1028500000800121002000F035F9D8E73C0000207D
:102860007C02002010B5FFF7E9FC06490020487003
:102870000146012000F026F900F042F9BDE81040C1
:10288000FFF7E4BC3C00002010B5FFF7D7FC0021A7
:10289000084600F017F900F02DF9BDE81040FFF7E9
:1028A000D5BC012070470120704700002DE9F041A0
:1028B0000646002749F60B501546814230D3481989
:1028C00049F6135290422BD8A1F51D440B3C6BB135
:1028D000012B26D11FE0A0B2FFF76CFC010A06F81D
:1028E000011B6D1E06F8010BADB2641C002DF2D168
:1028F00017E016F8010B000228F8140016F8012B57
:10290000104328F8140081B2A0B2FFF737F96D1E0A
:10291000ADB2641C01E0DFF81080002DE9D100E0C9
:1029200001273846BDE8F0817C0300200120704774
:10293000002210210148FEF700B80000000002400C
:10294000012210210148FDF7F8BF000000000240FD
:102950001CB5FEF705F8FFF749F9FFF751F83248C3
:1029600030494FF4964501600024C0E901540C2120
:10297000C460C0E904418461C461FEF7CFFF08B1BF
:1029800072B6FEE72848009448382849019401604F
:102990005321C0E9011431218461C160FEF794FB29
:1029A00008B172B6FEE720480094694648380194A1
:1029B000FEF742FB08B172B6FEE71B480094903860
:1029C0001B490194016045F20721C0E9011403216C
:1029D0008461C160FEF778FB08B172B6FEE7124869
:1029E0000094694690380194FEF726FB08B172B650
:1029F000FEE7FFF787F80C480421D838FEF76AFD98
:102A0000FFF796FF00222B46052110460094FFF7A2
:102A100005FEFFF723FCFFF741FE0520FDF746FE0C
:102A2000F9E7000000440040D001002000140040FD
:102A300000100040002804D0012803D0072803D04C
:102A40000420704702207047062070470148006844
:102A5000004700007000002000224FF48041014830
:102A6000FDF76BBF000C024000224FF4004101480B
:102A7000FDF763BF000C0240012251030148FDF73E
:102A80005CBF0000000C0240012291030148FDF7E9
:102A900054BF0000000C024070B5094DFF231A46D8
:102AA00005F5807605E010F8014B54402A5D5A4048
:102AB000335D491E89B2F6D242EA032070BD0000A0
:102AC0000A2D00080A4B00281A68D06802D040F08E
:102AD000200001E020F02000D06018680029C168C3
:102AE00002D041F0800101E021F08001C160704717
:102AF000D00100200148FEF787BB000088010020BC
:102B00000249002048800248FEF73EBB3800002002
:102B1000880100200549024600204B78002B04D094
:102B2000087810700020487001207047360000209F
:102B30000249002048700120704700003600002044
:102B4000024901224A700870104670473600002082
:102B500004490A69096849680AB101F07F010170F6
:102B600001207047D001002010B5134C20B101287E
:102B700004D002280CD101E0104820606160082ACE
:102B800006D10020A0602BB1012B08D0022B03D06E
:102B9000002010BD206105E04FF4806101E04FF49A
:102BA000C06121610C21E060C4E90510E0610248C8
:102BB000FEF7B4FE012010BDD0010020004400400B
:102BC000024909684860012070470000D0010020D8
:102BD00001490880012070473800002038B5174CA3
:102BE0000025207808B1FDF7B6FB6846FFF7B0FF77
:102BF000617831B1124A012907D0022910D0032986
:102C000001D1FFF77DFF284638BD0020A0809DF848
:102C10000000A1880A44491CA180107002200BE02A
:102C2000A088FF2807D89DF80010A0880244401C07
:102C3000A0801170E5E703206070E2E73C0000200F
:102C40007C02002070B50E4D0024687870B1022817
:102C50000BD003280DD0687858B16878022808D0C6
:102C60006878032805D0FDF776FB0120FFF768FFA1
:102C70000446FFF73FFF01206870204670BD00004A
:102C80003C00002070B5174C00256078012801D069
:102C9000FDF761FB217811B1012920D104E0002169
:102CA0000120FFF70FFF1AE0608860B1FFF748FED0
:102CB000A0680078FFF784FFA068401CA0606088CF
:102CC000401E60800BE0FFF733FE0320FFF738FF64
:102CD000054600210120FFF7F5FE00202070284660
:102CE00070BD00003C0000204FF04070E1EE100A83
:102CF0007047000000000000000001020304060706
:102D00000809000000000102030400C1814001C065
:102D1000804101C0804100C1814001C0804100C1AB
:102D2000814000C1814001C0804101C0804100C19B
:102D3000814000C1814001C0804100C1814001C08B
:102D4000804101C0804100C1814001C0804100C17B
:102D5000814000C1814001C0804100C1814001C06B
:102D6000804101C0804100C1814000C1814001C05B
:102D7000804101C0804100C1814001C0804100C14B
:102D8000814000C1814001C0804101C0804100C13B
:102D9000814000C1814001C0804100C1814001C02B
:102DA000804101C0804100C1814000C1814001C01B
:102DB000804101C0804100C1814001C0804100C10B
:102DC000814000C1814001C0804100C1814001C0FB
:102DD000804101C0804100C1814001C0804100C1EB
:102DE000814000C1814001C0804101C0804100C1DB
:102DF000814000C1814001C0804100C1814001C0CB
:102E0000804101C0804100C1814000C0C101C303B5
:102E100002C2C60607C705C5C404CC0C0DCD0FCF32
:102E2000CE0E0ACACB0BC90908C8D81819D91BDBA2
:102E3000DA1A1EDEDF1FDD1D1CDC14D4D515D717F2
:102E400016D6D21213D311D1D010F03031F133F3A2
:102E5000F23236F6F737F53534F43CFCFD3DFF3FF2
:102E60003EFEFA3A3BFB39F9F83828E8E929EB2B22
:102E70002AEAEE2E2FEF2DEDEC2CE42425E527E7B2
:102E8000E62622E2E323E12120E0A06061A163A322
:102E9000A26266A6A767A56564A46CACAD6DAF6FB2
:102EA0006EAEAA6A6BAB69A9A86878B8B979BB7B22
:102EB0007ABABE7E7FBF7DBDBC7CB47475B577B772
:102EC000B67672B2B373B17170B0509091519353A2
:102ED000529296565797559594549C5C5D9D5F9F72
:102EE0009E5E5A9A9B5B99595898884849894B8BA2
:102EF0008A4A4E8E8F4F8D4D4C8C44848545874732
:102F00004686824243834181804000002C2F000886
:102F100000000020F8000000C40100082430000870
:102F2000F8000020F8620000E00100080000000046
:102F30000100000010000000000000000024F40068
:102F40000000000000000000000000000000000081
:102F50000000000000000000000000000000000071
:102F60000000000000000000000000000000000061
:102F7000000000000200000000000000000000004F
:102F80000000000000000000000000000000000041
:102F90000000000000000000000000000000000031
:102FA00011000000BD24000804000000BF23000839
:102FB000030000006123000810000000CD25000878
:102FC0000600000037250008170000002124000833
:102FD000010000007D22000805000000E124000837
:102FE0000F0000006925000802000000EF22000821
:102FF00000000000000000000000000000000000D1
:1030000000000000000000000000000000000000C0
:1030100000000000000000000000000000000000B0
:0430200000000000AC
:040000050800018965
:00000001FF
