:020000040800F2
:1000000050A3002029030008171900083118000820
:1000100009190008AD060008B51D00080000000021
:10002000000000000000000000000000690200085D
:10003000AF06000800000000C502000871190008A2
:100040004303000843030008430300084303000878
:100050004303000821190008430300084303000874
:100060004303000843030008430300084303000858
:100070004303000843030008430300084303000848
:100080004303000843030008430300084303000838
:10009000430300084303000843030008B1060008B7
:1000A00043030008430300083D1A00084303000807
:1000B0004303000843030008430300084303000808
:1000C00043030008430300084303000843030008F8
:1000D0004303000843030008551D000843030008BC
:1000E00043030008430300084303000843030008D8
:1000F00043030008430300084303000843030008C8
:1001000043030008430300084303000843030008B7
:100110004303000843030008491A0008551A000861
:100120004303000843030008430300084303000897
:100130004303000843030008430300084303000887
:100140004303000843030008430300084303000877
:100150004303000843030008430300084303000867
:100160004303000843030008430300084303000857
:100170004303000843030008430300080000000095
:10018000430300084303000800F002F800F05CF8A5
:100190000AA090E8000C82448344AAF10107DA45E2
:1001A00001D100F051F8AFF2090EBAE80F0013F0D8
:1001B000010F18BFFB1A43F0010318471834000061
:1001C000383400000A444FF0000C10F8013B13F0E3
:1001D000070408BF10F8014B1D1108BF10F8015BA0
:1001E000641E05D010F8016B641E01F8016BF9D193
:1001F00013F0080F1EBF10F8014BAD1C0C1B09D1EA
:100200006D1E58BF01F801CBFAD505E014F8016B5B
:1002100001F8016B6D1EF9D59142D6D370470000ED
:100220000023002400250026103A28BF78C1FBD8FF
:10023000520728BF30C148BF0B6070471FB503F09D
:100240007BF81FBD10B510BD00F0DEF91146FFF7B9
:10025000F5FF02F055F900F0FCF903B4FFF7F2FFE7
:1002600003BC00F0A5F900002C4B19680868B0E841
:10027000F04F80F30988BFF36F8F4FF0000080F3D9
:10028000118870470000000008480068006880F38B
:1002900008884FF0000080F3148862B661B6BFF39F
:1002A0004F8FBFF36F8F00DF00BF00BF08ED00E08E
:1002B000DFF80C00016841F470010160704700BF75
:1002C00088ED00E0EFF30980BFF36F8F134B1A68DE
:1002D0001EF0100F08BF20ED108A20E9F04F1060CB
:1002E00009B44FF0500080F31188BFF34F8FBFF374
:1002F0006F8F02F073FD4FF0000080F3118809BC8E
:1003000019680868B0E8F04F1EF0100F08BFB0EC95
:10031000108A80F30988BFF36F8F70471C0000209C
:10032000EFF30580704700000948804709480047FF
:10033000FEE7FEE7FEE7FEE7FEE7FEE7FEE7FEE795
:10034000FEE7FEE704480549054A064B70470000F2
:100350002D1A0008890100085043002050A30020F6
:10036000506300205063002053EA020C00F06980C3
:100370002DE9F04B4FF00006002B1FBFB3FA83F5B9
:1003800003FA05F424FA05F65E4012BF1643B2FAEA
:1003900082F502FA05F4C5F120051EBF22FA05FC1C
:1003A00044EA0C04203556EA044C4FEA144418BFC2
:1003B000641C4FF000084FF00009904271EB030CF1
:1003C00039D3002919BFB1FA81F701FA07F6B0FA5B
:1003D00080F700FA07F6C7F120071EBF20FA07FCD6
:1003E00046EA0C062037B6FBF4FCA7EB0507103FE6
:1003F00007F01F0BCBF120060CFA0BFB2CFA06F6CC
:1004000044BFB3460026202FA4BF5E464FF0000B2A
:100410005BEA060C08BF4FF0010B19EB0B09ABFBB5
:10042000027C48EB0608C01B06FB02CC0BFB03CC8E
:1004300071EB0C01C1E70B46024641464846BDE858
:10044000F08B13B54FF000004FF00001AFF30080C8
:10045000BDE81C40704710B5002000F0AFF8FFF772
:10046000F1FEBDE81040012000F0A2B8032A40F2DE
:10047000308010F0030C00F0158011F8013BBCF146
:10048000020F624498BF11F801CB00F8013B38BF5E
:1004900011F8013BA2F1040298BF00F801CB38BF6C
:1004A00000F8013B11F0030300F02580083AC0F08A
:1004B000088051F8043B083A51F804CBA0E8081032
:1004C000F5E7121D5CBF51F8043B40F8043BAFF365
:1004D0000080D20724BF11F8013B11F801CB48BFBF
:1004E00011F8012B24BF00F8013B00F801CB48BFF5
:1004F00000F8012B704710B5203AC0F00B80B1E82E
:100500001850203AA0E81850B1E81850A0E8185048
:10051000BFF4F5AF5FEA027C24BFB1E81850A0E851
:10052000185044BF18C918C0BDE810405FEA827C6B
:1005300024BF51F8043B40F8043B08BF7047D20782
:1005400028BF31F8023B48BF11F8012B28BF20F823
:10055000023B48BF00F8012B70474FF0000200B586
:10056000134694469646203922BFA0E80C50A0E8D6
:100570000C50B1F12001BFF4F7AF090728BFA0E884
:100580000C5048BF0CC05DF804EB890028BF40F850
:10059000042B08BF704748BF20F8022B11F0804F92
:1005A00018BF00F8012B7047704770477047000074
:1005B00001491820ABBEFEE72600020010B500F08E
:1005C0000BF8BDE8104000F001B87047002801D0DA
:1005D000FFF7EEBF7047000010B5002102A000F049
:1005E00041F8012010BD0000534947414252543A9E
:1005F0002041626E6F726D616C207465726D696E00
:100600006174696F6E000000754600F04BF8AE46ED
:1006100005006946534620F00700854618B020B50E
:10062000FFF790FEBDE820404FF000064FF00007B6
:100630004FF000084FF0000B21F00701AC46ACE88A
:10064000C009ACE8C009ACE8C009ACE8C0098D46F7
:10065000704710B50446AFF300802046BDE8104057
:10066000FFF7FBBD70B505460C460A2000E06D1C87
:1006700000F011F835B128780028F8D102E0641CA8
:1006800000F009F814B120780028F8D1BDE87040D6
:100690000A20AFF3008008B569468DF800000320FA
:1006A000ABBE08BD00487047EC420020FEE7704733
:1006B0002DE9F041114F4FF480742146384600F087
:1006C00085F90F4E6500012806D02946384600F00E
:1006D0007DF9012804D009E0308838B1094802E0EA
:1006E000308818B108480168491C0160204600F0B4
:1006F00069F82846BDE8F04100F064B800140240F3
:100700008C00002084000020880000202DE9F041AA
:100710000446876D00F064F9064694F8350000251C
:10072000022806D08020606584F834500120BDE89E
:10073000F0812068016821F016010160206841699C
:1007400021F080014161206C08B9A06C20B12068C3
:10075000016821F0080101602068016821F00101B1
:1007600001600CE000F03CF9801B052807D920202F
:100770006065032084F8350084F83450D7E720689A
:100780000068C007EED194F85C103F208840B86044
:10079000012084F8350084F834500020C7E790F831
:1007A0003510022903D080214165012070470521C1
:1007B00080F835100068016821F001010160002017
:1007C00070477047044910B50A68024202D00860B9
:1007D000FFF7F7FF10BD0000143C01402DE9F84F72
:1007E000DFF8BCA1002201250AF1040B03264FF01B
:1007F0000F090BF1040E00BF0B6805FA02F4234049
:10080000A34270D10F7907F00307012F01D0022F07
:1008100016D187684FEA420806FA08FC27EA0C0757
:10082000D1F80CC00CFA08FC4CEA070CC0F808C060
:100830004768A7430C79C4F3001494403C434460D8
:100840000C79E443A4070AD0C4684FEA420C06FAC4
:100850000CF7BC438F6807FA0CF72743C7600C7985
:1008600004F00304022C12D1D40800EB840CDCF851
:1008700020405707FF0E09FA07F824EA0804D1F8C8
:10088000108008FA07F848EA0408CCF820800468C9
:100890004FEA420C06FA0CF7BC430F7907F0030746
:1008A00007FA0CF7274307604C6814F4403F70D0F8
:1008B0003C4C276847F480472760246822F00307F0
:1008C00004F480440094384C07EB040CDCF808482E
:1008D00097074FEA177809FA08F7BC43334FB84235
:1008E00002D1002724E054E0314FB84201D1012762
:1008F0001EE0304FB84201D1022719E02E4FB84216
:1009000001D1032714E02D4FB84201D104270FE095
:100910002B4FB84201D105270AE02A4FB84201D136
:10092000062705E0284FB84201D1072700E0082735
:1009300007FA08F72743CCF80878DAF8004057465A
:10094000D1F804C09C435FEACC3C00D51C433C601A
:10095000DBF800405F46D1F804C09C435FEA8C3C62
:1009600000D51C433C60DEF800407746D1F804C057
:100970009C435FEACC2C00D51C433C60084F0C37ED
:100980003C68D1F804C09C435FEA8C2C00D51C4322
:100990003C60521C102AFFF42FAFBDE8F88F000016
:1009A000003C014044380240003001400000024059
:1009B0000004024000080240000C02400010024007
:1009C0000014024000180240001C02400069084068
:1009D00000D0012070470AB1816170470904FBE72C
:1009E00001488068704700000C00002002488168C0
:1009F00002781144816070470C0000200B4810B54C
:100A0000016841F400710160016841F48061016096
:100A1000016841F480710160032000F097F80F2015
:100A200000F006F800F03EF8002010BD003C024047
:100A300010B5014688B000221A2000F067F81A208D
:100A400000F056F813480024016841F48021016049
:100A5000006805A900F480200690684600F022F99D
:100A600000F050F90C494000B0FBF1F10C480B4A82
:100A7000491E026040F2E732C0E90324C0E90114D4
:100A800000F080FB10B1012008B010BD044800F058
:100A9000D9FBF9E74438024040420F0000480140CA
:100AA00084040020114808B5016841F480410160C8
:100AB000006800F4804000900C48001F016841F07D
:100AC000805101600068002200F0805000900F21EA
:100AD000901E00F01BF805210022084600F016F8D1
:100AE000BDE80840052000F003B80000443802408B
:100AF000002809DB00F01F0201219140400980001D
:100B000000F1E020C0F8001170470000F0B40E4B77
:100B10001B680C46C3F30223C3F10705042D00D95B
:100B20000425191D072901D2002300E0DB1E012640
:100B300006FA05F1491E214099409E40761E164056
:100B40003143F0BC01F058B90CED00E0064900F06B
:100B5000070208684FF6FF03184040EA0220034AE4
:100B600010430860704700000CED00E00000FA053B
:100B70002DE9F0470E46050065D0DFF81481D8F85E
:100B80000000F7B200F00700B04207D288F800700A
:100B9000D8F8000000F00700B04254D128683D4C5E
:100BA000810712D5400703D5206840F4E05020604B
:100BB0002878000703D5206840F460402060206852
:100BC000A96820F0F000084320602878C0072DD0E5
:100BD000304968680839012812D0022813D0032848
:100BE00011D00968890700292DDA216821F0030155
:100BF00001432160FFF7F4FE814641F2883A0EE09E
:100C000009688903EFE709688901ECE7FFF7E8FE67
:100C1000A0EB0901514502D90320BDE8F087206807
:100C2000696800F00C00B0EB810FEFD1D8F800102C
:100C3000404601F00701B14207D90770006800F093
:100C40000700B04201D00120E7E72878400705D52A
:100C50002068E96820F4E050084320602878000705
:100C600006D52068296920F4604040EAC100206070
:100C700000F058F82168084AC1F30311515CC840DC
:100C80000649086006480068FFF7D2FE0020C4E766
:100C9000003C024008380240983300081800002049
:100CA000100000200F2202600C4A136803F00303B7
:100CB0004360136803F0F0038360136803F4E053A8
:100CC000C36012684FF4E05303EAD20202610448A1
:100CD000006800F007000860704700000838024014
:100CE000003C02400448054900680968044AC1F311
:100CF0008221515CC840704718000020083802402B
:100D0000A83300080448054900680968044AC1F38B
:100D10004231515CC840704718000020083802403A
:100D2000A8330008154810B5006810F00C021448EC
:100D300013D04110042A0FD0082A0ED10F4C241FC3
:100D40002268236802F03F025B0207D52068C0F3E7
:100D50008810A0FB010106E0084610BD2168C1F320
:100D60008811A1FB00010023FFF7FEFA2168C1F3FF
:100D70000141491C4900B0FBF1F010BD08380240A8
:100D80000024F4002DE9F84F04006ED02078DFF83D
:100D90004C93C007A9F104054AD009F10400016889
:100DA000C1F38101012908D00068C0F38100022845
:100DB0000AD1D9F80000400206D52868800337D54B
:100DC00060680028E1D033E06068B0F5803F10D063
:100DD000B0F5A02F286810D020F480302860286853
:100DE00020F4802028606068A8B1FFF7F9FD06466E
:100DF0000DE0286840F48030F4E740F4802028605B
:100E0000F7E700BFFFF7ECFD801B642873D8286864
:100E10008003F7D50CE0FFF7E3FD064605E000BFD1
:100E2000FFF7DEFD801B6428F0D828688003F7D424
:100E30002078DFF8AC8280074FF0000A3ED5A74843
:100E4000001D016811F00C0F08D00068C0F381008C
:100E500002280BD1D9F80000400207D42868800787
:100E600016D5E068012800D112E033E1E068B8B19E
:100E70000120C8F80000FFF7B3FD064605E000BFFB
:100E8000FFF7AEFD801B0228C0D828688007F7D581
:100E90002868216920F0F80040EAC10028600DE0D0
:100EA000C8F800A0FFF79CFD064604E0FFF798FD98
:100EB000801B02281FD828688007F7D420780007F5
:100EC00022D5864F87486169703771B10121016071
:100ED000FFF786FD064604E0FFF782FD801B02282F
:100EE00009D838688007F7D50EE0C0F800A0FFF7F2
:100EF00077FD064605E082E0FFF772FD801B0228C1
:100F00007DD838688007F7D42078400768D5DFF8A7
:100F1000CCB100270BF13C0BDBF80000C0000BD478
:100F2000DBF8001041F08051CBF80010DBF8000036
:100F3000012700F0805000906B4E3068C00510D43F
:100F4000306840F480703060FFF74AFD009005E0A3
:100F5000FFF746FD0099401A022850D83068C005B6
:100F6000F6D55E4EA0686C3601280FD00528306893
:100F700010D020F001003060306820F004003060B4
:100F8000A068B8B1FFF72CFD00900FE0306840F08A
:100F90000100F4E740F004003060F7E7FFF720FDC0
:100FA0000099411A41F28830814266D83068800742
:100FB000F4D50EE0FFF714FD009007E0FFF710FDF9
:100FC0000099411A41F28830814256D83068800732
:100FD000F4D42FB1DBF8001021F08051CBF80010D1
:100FE000A069C8B33D49091D0968C1F381010229FF
:100FF0004AD00228504607D0C8F8600000E03CE024
:10100000FFF7EEFC04463BE04746C8F86000FFF7F8
:10101000E7FC064605E000BFFFF7E2FC801B022864
:101020002BD828688001F7D4D4E907010843A16AC6
:101030002E4A490802EB0141626A41EA82110843E3
:1010400094F82C1040EA0161C9F8001001203866BC
:10105000FFF7C6FC044606E03EE000BFFFF7C0FC19
:10106000001B022809D828688001F7D534E000BFAA
:10107000FFF7B6FC001B022802D90320BDE8F88F59
:1010800028688001F4D427E00128F7D0D9F80000BF
:10109000E26900F4800191421CD1226A00F03F0114
:1010A000914217D147F6C071626A0140B1EB821FCD
:1010B00010D1A26A4FF0FF3300F4403103EB52022B
:1010C000B1EB024F06D194F82C1000F07060B0EB39
:1010D000016F01D00120D1E70020CFE704380240A2
:1010E00000004742800E4742007000400000FFFFB2
:1010F0007047704770B590F83C20012A32D0012427
:1011000080F83C40022280F83D2003685A689D68C0
:1011100022F070060A6832435A60134B02689A4202
:1011200014D0B2F1804F11D0104B9A420ED0104B18
:101130009A420BD00F4B9A4208D00F4B9A4205D0DF
:101140000E4B9A4202D00E4B9A4204D1496825F0C8
:1011500080031943916080F83D40002180F83C10E5
:10116000084670BD022070BD000001400004004030
:1011700000080040000C0040000401400040014015
:101180000018004010B5040003D094F83D0010B1E1
:1011900007E0012010BD002084F83C00204600F04C
:1011A0001FF8022084F83D00211D206800F058FC43
:1011B000012084F8460084F83E0084F83F0084F85B
:1011C000400084F8410084F8420084F8430084F829
:1011D000440084F8450084F83D00002010BD000064
:1011E00008B5154A0168154891420ED1016841F0D1
:1011F000100101600068002200F01000009005213D
:101200003620FFF783FC362010E00D4A914211D1C1
:10121000016841F0200101600068002200F0200018
:10122000009005213720FFF771FC3720BDE808400A
:10123000FFF75EBC08BD00000010004040380240CF
:101240000014004090F83D10012901D001207047A2
:10125000022180F83D100168CA6842F00102CA60AC
:1012600000681149884214D0B0F1804F11D00F4965
:1012700088420ED00E4988420BD00E49884208D0D1
:101280000D49884205D00D49884202D00C49884258
:1012900004D1816801F00701062903D0016841F0FB
:1012A000010101600020704700000140000400407F
:1012B00000080040000C00400004014000400140D4
:1012C000001800400168CA6822F00102CA60016883
:1012D0000A6A41F211131A4207D10A6A9B101A4294
:1012E00003D10A6822F001020A60012180F83D1052
:1012F00000207047704770B50446006801694FF0E0
:101300000005C943890715D4C168C943890711D4A9
:10131000E91E01610120207720688069800720464E
:1013200002D0FFF7E7FF04E000F098F8204600F055
:1013300096F8257720680169C943490717D4C16821
:10134000C943490713D46FF00401016102202077DB
:101350002068806910F4407F204602D0FFF7CAFF62
:1013600004E000F07BF8204600F079F8257720684B
:101370000169C943090716D4C168C943090712D4D2
:101380006FF008010161042020772068C0698007A0
:10139000204602D0FFF7AEFF04E000F05FF82046E1
:1013A00000F05DF8257720680169C943C90617D4A4
:1013B000C168C943C90613D46FF010010161082048
:1013C00020772068C06910F4407F204602D0FFF7E4
:1013D00091FF04E000F042F8204600F040F8257745
:1013E00020680169C943C90708D1C168C943C90751
:1013F00004D1891E0161204600F032F8206801699D
:10140000C943090609D4C168C943090605D46FF068
:10141000800101612046FFF76BFE20680169C94326
:10142000490609D4C168C943490605D46FF0400193
:101430000161204600F054F820680169C94389061B
:101440000BD4C168C943890607D46FF0200101613C
:101450002046BDE87040FFF74CBE70BD7047704736
:1014600000681549884201D1FFF7C0BA134A00212C
:1014700090420BD112480288521C92B20280114B4A
:101480001B889A4216D3018001F0B4BA0E4A9042EA
:1014900010D10E4A1068401C10600D4A1368984223
:1014A00008D10C48116001800B49012008800B48CD
:1014B000FFF708BF704700000048014000140040DB
:1014C0009E0000209C00002000100040940000209E
:1014D000900000208C0000208E0000205C01002085
:1014E0007047704770470000F8B501680446086807
:1014F000CA684B6910F00F0F4FF0000559D003F088
:10150000010602F49077374365D0C10705D0D105B5
:1015100003D5216C41F001012164410705D5D907AC
:1015200003D0216C41F002012164810705D5D90760
:1015300003D0216C41F004012164010707D502F0BA
:101540002001314303D0216C41F008012164216C5A
:1015500000293AD0800604D5900602D5204600F036
:1015600012FB20684069216CC0F38010090700D489
:1015700060B3204600F0E0FA20684069400621D5BB
:101580002068143050E8001F21F0400140E80012AC
:10159000002AF5D1A06BA8B16C490165A06BFFF7DB
:1015A000FEF8002811D0A06B016D01B0BDE8F0403D
:1015B000084783060FD593060DD52046BDE8F840B1
:1015C00000F0E1BA2046FFF78DFFF8BD2046FFF797
:1015D00089FF2564F8BD266B2023012E79D1C6062C
:1015E00077D5D60675D508684868009048694006E2
:1015F00040D5A16B086840680004000CEAD0A28DB9
:101600008242E7D9E085C869B0F5807F2DD0206897
:101610000C3050E8001F21F4807140E80012002ACD
:10162000F5D12068143050E8001F21F0010140E896
:101630000012002AF5D12068143050E8001F21F074
:10164000400140E80012002AF5D184F83E302563BD
:1016500020680C3050E8001F21F0100140E8001213
:10166000002AF5D1A06BFFF751F8A08DE18D401A4B
:1016700081B229E0A08DE18D401A81B2E08D002871
:10168000A8D00029A6D020680C3050E8002F22F402
:10169000907240E80026002EF5D12068143050E802
:1016A000002F22F0010240E80026002EF5D184F838
:1016B0003E30256320680C3050E8002F22F01002E5
:1016C00040E80023002BF5D12046FFF70AFFF8BDC4
:1016D000FFE705062BD5150629D594F83D002128EE
:1016E000F5D1A068B0F5805F01D12069B0B1206A62
:1016F000411C2162216800784860E08C401E000493
:10170000000CE084E3D12068C16821F08001C16051
:101710002068C16841F04001C160D8E7206A0088B4
:10172000C0F308004860206A801C2062E5E740069C
:10173000CDD55006CBD5CA68204622F04002CA60FB
:1017400084F83D3000F073F8C1E70000291B000861
:1017500070B5040004D094F83D00002510B106E0F7
:10176000012070BD84F83C50204600F023F824206E
:1017700084F83D002068C16821F40051C160204612
:1017800000F062FA2068016921F49041016120684B
:10179000416921F02A0141612068C16841F400518A
:1017A000C1602564202084F83D0084F83E000020BC
:1017B00070BD000010B586B0044614216846FEF7DF
:1017C000CCFE17492068884228D1164800210268BB
:1017D00042F400320260006800F4003005901148C5
:1017E0001038026842F001020260006800F0010057
:1017F00005900C2000900220CDE901010320039008
:101800000720049069460848FEF7E8FF00220521FA
:101810002620FFF77BF92620FFF76AF906B010BDF6
:1018200000440040403802400000024070477047CA
:10183000FEE700002DE9F04186B014216846FEF76E
:101840008CFE2D480024016841F0200101600168F0
:1018500001F020010591016841F0800101600168FB
:1018600001F080010591016841F00101016001680A
:1018700001F001010591016841F008010160006873
:101880001E4F00F008000590002210213846FFF797
:10189000A2F8DFF86C804FF46046002231464046E3
:1018A000FFF799F84FF4407000904FF48810CDE99D
:1018B000010469461348FEF791FF10200125CDE988
:1018C00000050220CDE9020469463846FEF786FF8E
:1018D0000096CDE90154694640460394FEF77EFF29
:1018E000002205211720FFF711F91720FFF700F953
:1018F00006B0BDE8F0810000303802400000024030
:10190000000C024000140240FEE700F0B5FC02208B
:1019100000F088FEF9E7FEE7012000F083FEFBE718
:101920007047000049F60A52104482B2A2F51D42E7
:101930000A480A3A042A0CD2DFE802F0020B0A0C29
:10194000012906D10649012008800648FFF77ABC24
:1019500001607047026842EA0141F9E79000002007
:101960008C0000205C010020012000F05BFEFBE702
:1019700010B5502080F31188BFF34F8FBFF36F8FE6
:1019800001F012FC18B104494FF0805008600020AB
:1019900080F3118810BD000004ED00E030B593B075
:1019A00030216846FEF7D9FD14210CA8FEF7D5FDBD
:1019B0001C480025016841F080510160006800F07A
:1019C000805011901848016841F48041016000681E
:1019D000022400F480401190012000900004019046
:1019E0008001CDE9064008200890A820CDE909042F
:1019F00004200B906846FFF7C5F908B172B6FEE700
:101A00000CA90F2081E831004FF480500F90109006
:101A100002210CA8FFF7ACF8002801D072B6FEE74F
:101A200013B030BD403802400070004002480168E9
:101A300041F470010160704788ED00E00148FFF754
:101A40005ABC0000840400200148FFF754BC000089
:101A50005C0100200148FFF74EBC0000A4010020FB
:101A6000F0B50268254C264D264E274F274B4FF0E8
:101A7000804CA04209D0604507D0A84205D0B042B2
:101A800003D0B84201D0984204D122F0700E4A68C7
:101A900042EA0E02A0421BD0604519D0A84217D0DE
:101AA000B04215D0B84213D0984211D0184DA84278
:101AB0000ED0184DA8420BD0174DA84208D0174D94
:101AC000A84205D0164DA84202D0164DA84203D117
:101AD00022F44075CA682A434D6922F080022A43E5
:101AE00002608A68C2620A688262A04201D098429B
:101AF00001D10969016301214161F0BD000001408C
:101B00000004004000080040000C004000040140B8
:101B100000400140004401400048014000180040DE
:101B2000001C00400020004010B5806B0021C185E2
:101B3000C184FFF7D7FC10BD01680C3151E8002FBC
:101B400022F4907241E80023002BF5D10168143192
:101B500051E8002F22F0010241E80023002BF5D1CB
:101B6000016B012909D101680C3151E8002F22F0E5
:101B7000100241E80023002BF5D1202180F83E100F
:101B800000210163704708B590F83E10222901D06A
:101B9000022008BD82684FF480539A4201D1016946
:101BA00021B1816A9A421BD04AB10AE00268816A77
:101BB0005268C2F308020A80816A891C08E002693F
:101BC00072B10268526802F07F020A70816A491C91
:101BD0008162C18D491E0904090CC18503D019E039
:101BE00002685268F1E70168CA6822F02002CA6000
:101BF0000168CA6822F48072CA6001684A6922F0EA
:101C000001024A61202180F83E10016B012903D0B6
:101C1000FFF70CFE002008BD0021016301680C31B4
:101C200051E8002F22F0100241E80023002BF5D1EB
:101C300001680A68D20602D50A6849680091818D58
:101C4000FFF74FFCE6E7000070B504460068016945
:101C5000E26821F44051114301612169A068E26901
:101C600008436169114308432168CA6849F20C635B
:101C70009A430243CA6020684169A26921F4407115
:101C80001143416131492068884202D0304988427D
:101C900002D1FFF737F801E0FFF724F8E2690023EB
:101CA000192164253226B2F5004F626828D0A0FBC6
:101CB0000101930F9200FEF757FB0146B0FBF5F0D0
:101CC0006FF01802504301EB800006EB0010B0FBF0
:101CD000F5F000F0F002B1FBF5F002EB0012B1FB01
:101CE000F5F06FF01803584301EB800006EB00108D
:101CF000B0FBF5F000F00F0021681044886070BD63
:101D0000A0FB010192185B41FEF72EFB0146B0FBE0
:101D1000F5F00201B1FBF5F06FF01803584301EB49
:101D2000800006EBC000B0FBF5F000F0F80002EB1D
:101D30004002B1FBF5F0584301EB800006EBC00018
:101D4000B0FBF5F000F00700D6E7000000100140FE
:101D50000014014010B5044800F008F8BDE8104038
:101D60000148FFF7C1BB0000EC01002010B501687D
:101D700004460868C968C0F3401001F0200118B19A
:101D800011B10A480068804721680868C968C0F333
:101D9000C01001F08001002806D0002904D00448BA
:101DA0000068BDE81040004710BD0000CC000020D6
:101DB000D0000020FEE70000014649F60A52114417
:101DC0000A4A89B2A1F51D41002012680A39042986
:101DD00007D2DFE801F002040709054800E00548E2
:101DE0000088704790B27047100C70479000002038
:101DF0008C0000208E0000200907090E002804DB5B
:101E000000F1E02080F80014704700F00F0000F1AE
:101E1000E02080F8141D704702480168491C0160E9
:101E2000704700005801002002480168491E016007
:101E3000704700005801002070B5064D0024287836
:101E4000012802D00624204670BD28698047002062
:101E50002870F8E7AC00002070B50C460988002512
:101E600005292FD1417840F2CF760A0281781143BB
:101E7000C278491C1302027989B21A43531EB34235
:101E800020D200232380012300F8013B2688761C02
:101E90002680560703D003EBD203DEB201E0C2F383
:101EA000C70600F8016B23885B1C2380002300F029
:101EB000E4FA18B100F092FD054604E020883044B1
:101EC000208000E00325284670BD70B50C460988C7
:101ED000002505292FD1417840F2CF760A0281787A
:101EE0001143C278491C1302027989B21A43531E66
:101EF000B34220D200232380022300F8013B238831
:101F00005B1C2380530704D0012303EBD203DEB212
:101F100001E0C2F3C70600F8016B23885B1C238035
:101F200000F0ADFA18B100F059FD054604E0208834
:101F30003044208000E00325284670BD70B50C4673
:101F400009880026052925D1417805790A0281787A
:101F50001143491C6A1E89B27C2A1BD800222280A8
:101F6000032200F8012B22880023521C22806A00E1
:101F700000F8012B2288521C22802A4600F082FAA7
:101F800018B100F02BFD064605E0208800EB450067
:101F9000208000E00326304670BD70B50C460988ED
:101FA0000026052927D1417805790A028178114355
:101FB000C278491C45EA02256A1E89B27C2A1AD2D7
:101FC00000222280042200F8012B2288521C228049
:101FD0006A0000F8012B2288521C22802A4600F059
:101FE0008DFA18B100F0FAFC064605E0208800EBF7
:101FF0004500208000E00326304670BD2DE9F04109
:102000000446088800270D460A2842D360782679BE
:102010000102A078227A0843401C1FFA80F8E07879
:1020200046EA00266079731E0102A0790843401C2D
:1020300081B2E0797C2B42EA0022607A28D83AB358
:10204000792A25D8B0EB420F22D1012304F10A00EE
:1020500000F018FA98B900212980172121702988E9
:10206000601C491C2980710000F8011B298800238D
:10207000491C29803246414600F004FA18B100F0AC
:10208000ADFC074605E0288800EB4600288000E00C
:1020900003273846BDE8F08170B5064C0D46064969
:1020A0002288401CFEF7E2F92088401C288000208E
:1020B00070BD000098000020BC41002038B50988A0
:1020C000002405290BD141780A0281781143491C6B
:1020D000027989B21AB9C278FF2A03D012B1032457
:1020E000204638BD00228DF80120C078FF280CD092
:1020F0008DF8002001231A46684600F0BEF900283A
:10210000EED000F06BFC0446EAE701208DF80000F9
:10211000F0E710B509880024052902D003242046E1
:1021200010BD417801230A028178C01C1143491C6B
:1021300089B21A4600F0A6F90028F0D000F04EFC53
:102140000446ECE72DE9F0410D46098800240529F5
:1021500026D9417843790A0281781143491C8EB20D
:10216000C178027942EA0122510704D0012101EB32
:10217000D201C9B201E0C2F3C701571EB7F5F66F2D
:102180000ED299420CD101233146801D00F075F921
:1021900018B100F023FC044603E00520288000E08D
:1021A00003242046BDE8F08170B50D46098800245F
:1021B00006291DD341780A0281781143C278491C4F
:1021C0001302027989B21A434379561E772E0FD82B
:1021D0005606360E9E420BD10123801D00F052F9A7
:1021E00018B100F0FBFB044603E00520288000E066
:1021F0000324204670BD00002DE9F0411D46069BDA
:102200001746064629B1F72903D8134C0846217111
:102210000EB102251BE0114921611149616111498B
:10222000E1601149A1610021E16110492162104979
:1022300061621049A1622A46394600F077F805002C
:1022400005D100F007FE28B16671012020702846F4
:10225000BDE8F0810325FAE7AC0000203D2400082A
:1022600061240008D123000879230008012F000809
:10227000A92F0008692F000838B52B4C207808B129
:10228000062038BD684600F0D7FD01284AD19DF8E8
:102290000000E8B3012802D0022843D10FE0224A0F
:1022A000A369921D911CC81F984788BB607821794B
:1022B000884200D060BB022000F0D4FD32E0A0686C
:1022C0000121194B0278A270E170002113F12C0357
:1022D00013F8315065B1954207D103EBC1014A684B
:1022E0001149891D9047E07002E0491C1029EFDB7D
:1022F000607868B1E07880B10021E180A17841F098
:102300008002A1680A70E288521C92B2E28000E06A
:1023100008E08854E088401CE080D4E90213E28899
:1023200020799847002038BDAC0000202DE9F0410D
:102330001F4615460E460024FFF76EFD3B46082259
:102340002946304600F0A2FD01280DD1B5F5964F83
:1023500001D9232003E007496800B1FBF0F080B207
:1023600000F0C8FD012800D00324FFF75DFD2046E2
:10237000BDE8F081A07F17002DE9F04116468846A0
:1023800007460025FFF748FD0F4CA088FF2801D91C
:10239000FEF761F8A088042804D3A1880B4800F058
:1023A000B3FB30B15FF00505FFF73EFD2846BDE801
:1023B000F081064800783870A088C01E308003483D
:1023C000401CC8F80000EFE7A0000020DC4100201E
:1023D0002DE9F04190460E4607460025FFF71CFD0B
:1023E000144C6078012806D05FF00505FFF71CFD4E
:1023F0002846BDE8F081701E0126A0606680077047
:10240000628802EB08016180618800F07DFB6188D1
:10241000094A5318491C61801870010A60880244F7
:10242000401C6080117026700121002000F0D2FB5A
:10243000DCE70000A0000020DC41002010B5FFF721
:10244000EBFC0649002048700146012000F0C2FB69
:1024500000F0DEFBBDE81040FFF7E6BCA000002066
:1024600010B5FFF7D9FC0021084600F0B3FB00F0DF
:10247000C9FBBDE81040FFF7D7BC01207047012021
:10248000704700002DE9F041002716460546CA298D
:102490002DD38819D2282AD8A1F1CA046BB1012BF7
:1024A00026D11FE0A0B2FFF787FC010A05F8011B47
:1024B000761E05F8010BB6B2641C002EF2D117E0AF
:1024C00015F8010B010228F8141015F8012BA0B221
:1024D000114328F8141089B2FFF724FA761EB6B219
:1024E000641C01E0DFF81080002EE9D100E0012734
:1024F0003846BDE8F0810000DC4200200120704732
:1025000098B0FEF77BFAFFF749FAFFF793F93D48D9
:102510003B494FF4964501600024C0E901540C2169
:10252000C460C0E904418461C461FFF711F908B1D6
:1025300072B6FEE733481694483833491794016061
:102540005321C0E9011431218461C160FEF71AFEF4
:1025500008B172B6FEE72B48169416A948381794AE
:10256000FEF7C8FD08B172B6FEE72648169490380B
:1025700026491794016045F20721C0E9011440F68D
:102580009F718461C160FEF7FDFD08B172B6FEE780
:102590001C48169416A990381794FEF7ABFD08B1A5
:1025A00072B6FEE700222B46052110460094FFF785
:1025B00023FEFFF741FC1C22154901A8FDF79BFFF4
:1025C000002101A800F03AF8124C11491C222060A9
:1025D0001C3108A8FDF78FFF002108A800F02EF895
:1025E0000B4960601C2238310FA8FDF784FF0021E1
:1025F0000FA800F023F8A06000F01BF8FEE7000031
:1026000000440040EC010020001400400010004095
:10261000443300080000002001460020842900D037
:10262000C81C704710B500B9012000F073FB0020F2
:1026300010BD10B500F094FB002010BD7FB50D4615
:1026400004464169B0F9080081B1A16971B1FFF791
:10265000E3FFD4E905128DE80700D4E900102B460A
:10266000226900F076FD039004B070BDFFF7D4FF3F
:1026700003A9CDE90001208A2B4682B2D4E90010DB
:1026800000F03AFD012801D00020EDE70398EBE7C8
:102690002DE9F041184C0F460546E6682068001DFC
:1026A00000F048FA38B9206890F82C1001208840D2
:1026B000216981432161681C07D137B12168BDE8D8
:1026C000F0410E48091D00F079BA20683544B54242
:1026D0004560216805D2A06BBDE8F041091D00F0FE
:1026E00055BA606B091D00F051FAA06A854200D20C
:1026F000A562BDE8F08100001C000020A8050020B4
:102700002DE9F041054600F08DFA2E4CA068401CE2
:10271000A06020682C4F10B1606940B32DE02560A7
:10272000A068012829D1002606EB860007EB80006F
:1027300000F01EFA761C072EF6D323488C3000F0EA
:1027400017FA2148A03000F013FA1F48B43000F007
:102750000FFA1D48C83000F00BFA1B48DC3000F0BF
:1027600007FA19488C3060631430A06305E02068D4
:10277000E96AC06A884200D82560606A401C6062CD
:10278000E96A0120226988401043206101EB810041
:1027900007EB8000291D00F011FA00F063FA606970
:1027A00000280CD02068E96AC06A884207D207492D
:1027B0004FF080500860BFF34F8FBFF36F8FBDE8BD
:1027C000F08100001C000020CC04002004ED00E09B
:1027D00010B5044690F8510058B101280CD00228D9
:1027E0000FD0502080F31188BFF34F8FBFF36F8F4E
:1027F000FEE7206B00F04AFA2046BDE8104000F0EA
:1028000045BA10BD10484FF47051420706D0C01DA4
:102810000D4920F00700411AC1F570510B4A002301
:102820000144C2E900030839183A21F00701116098
:102830004B600B600B1AC0E9001393604FF000402F
:102840005360506170470000BC05002070000020FC
:10285000144E154CA6F1C8074FF08058DFF84C9085
:1028600012E000BF00F0DEF9F068C568281D00F036
:1028700061F9A068401EA0606068401E606000F0C2
:10288000F1F92846FFF7A4FF60680028EAD138680C
:102890000128F9D9C9F80080BFF34F8FBFF36F8FBC
:1028A000F2E70000940500201C00002004ED00E089
:1028B0002DE9F0479A46DDE9098481466FF003036C
:1028C000206B03EB82021044089E20F00707780774
:1028D00007D0502080F31188BFF34F8FBFF36F8F65
:1028E000FEE7002561B1002023180A5C83F834203C
:1028F0000A5C12B1401C1028F6D384F8435001E062
:1029000084F83450072E00D30626E662C4E9116528
:10291000201D00F038F904F1180000F034F92461AA
:10292000C6F107006462A061E56484F85050524625
:102930004946384600F0D2F82060B8F1000F01D0C7
:10294000C8F80040BDE8F08730B5114900E01146F5
:102950000A688242FBD34B685C18844203D140680A
:1029600018444860084643681C18944209D1084C32
:10297000183C2468A24209D052681A4442600A688E
:1029800012680260814200D0086030BD0460F9E73F
:10299000700000200648416B096829B1416BC96885
:1029A000C9684968816270474FF0FF31FAE700005B
:1029B0001C00002008484068401C4FF0500080F385
:1029C000118804D0BFF34F8FBFF36F8FFEE7BFF3C3
:1029D0004F8FBFF36F8FFEE778000020002804D0F0
:1029E000012803D0072803D0042070470220704735
:1029F000062070470148006800470000D40000200E
:102A00002DE9F0410546002700F0E0F9324E30682C
:102A100008B9FFF7F7FE706905424ED1C5B3083516
:102A200068070ED005F00700C0F1080005446807EC
:102A300007D0502080F31188BFF34F8FBFF36F8F03
:102A4000FEE72DB37068854237D823481830014619
:102A50000C6801E020460C466168A94202D2216858
:102A60000029F7D131688C4227D0076821680160BE
:102A700060680837411B10290FD96019420708D038
:102A8000502080F31188BFF34F8FBFF36F8FFEE7A5
:102A900013E041606560FFF757FF61687068401A96
:102AA0007060B268904200D2B0607069014300204B
:102AB000C4E90001F068401CF06000F0DBFB78071F
:102AC00007D0502080F31188BFF34F8FBFF36F8F73
:102AD000FEE73846BDE8F0815800002010B5031F1E
:102AE0004FF080741C601B1F21F001011960191F39
:102AF000044B0B6014390A60091F6FF0020244385E
:102B00000A6010BDB529000870B5094DFF231A46AB
:102B100005F5807606E000BF10F8014B54402A5DB1
:102B20005A40335D491E89B2F6D242EA032070BD95
:102B3000B0330008D0E9013201699A60D0E901237D
:102B40005A604A68824201D182684A60002202616A
:102B50000868401E0860086870470000034B036067
:102B600003F154000860802010607047300200209C
:102B700000F108014FF0FF32C0E90112C1600161AC
:102B800000210160704700210161704730B50B687A
:102B90005A1C02D000F1080202E0026904E0224659
:102BA000546825689D42FAD953684B6099608A60E1
:102BB000516008610168491C016030BD42684A608B
:102BC00093688B6093685960916008610168491C43
:102BD000016070470A4B00281A68D06802D040F0A4
:102BE000200001E020F02000D06018680029C168B2
:102BF00002D041F0800101E021F08001C160704706
:102C0000EC0100200148FEF75DBB0000A40100209C
:102C10000249002048800248FEF714BB9C000020B7
:102C2000A4010020502080F31188BFF34F8FBFF321
:102C30006F8F0A494868401C486001280CD1084839
:102C4000006810F0FF0F07D0502080F31188BFF309
:102C50004F8FBFF36F8FFEE77047000078000020B2
:102C600004ED00E00849486828B1401E486001D1E1
:102C700080F311887047502080F31188BFF34F8F85
:102C8000BFF36F8FFEE700007800002070B50028CA
:102C90002AD0164DA0F1080460686969084207D17E
:102CA000502080F31188BFF34F8FBFF36F8FFEE783
:102CB00022683AB1502080F31188BFF34F8FBFF3E1
:102CC0006F8FFEE78843606000F080F86068696895
:102CD000084468602046FFF737FE2869401C2861D9
:102CE000BDE8704000F0C6BA70BD0000580000207A
:102CF0004FF0E02000210161816105494FF47A72B3
:102D00000968B1FBF2F1491E416107210161704779
:102D10001800002010B5020014D00F48006B38B125
:102D2000502080F31188BFF34F8FBFF36F8FFEE702
:102D300000F04CF800211046FFF7AAFC00F09AFAC8
:102D4000002807D105494FF080500860BFF34F8F2E
:102D5000BFF36F8F10BD00001C00002004ED00E0E9
:102D600010B586B00024039405AA04A903A804940E
:102D7000FFF7F4FEDDE903010094CDE90110002323
:102D80000EA11048059A00F0E4F90F490028C86226
:102D900011D0502080F31188BFF34F8FBFF36F8F96
:102DA0004FF0FF30886201204861CC6006B0BDE87A
:102DB000104000F027B906B010BD000049444C4552
:102DC00000000000512800081C0000200248016B90
:102DD000491C0163704700001C0000201448016B6F
:102DE00011B10121C16170470021C1610169B1FACE
:102DF00081F1C1F11F0101EB81020E4951F822302E
:102E00006BB101EB820101F108034A6852684A6024
:102E10009A4201D152684A60D168016070475020DF
:102E200080F31188BFF34F8FBFF36F8FFEE7000071
:102E30001C000020CC0400200549024600204B78ED
:102E4000002B04D0087810700020487001207047D3
:102E50009A000020024900204870012070470000BD
:102E60009A000020024901224A70087010467047FB
:102E70009A00002004490A69096849680AB101F00A
:102E80007F01017001207047EC01002010B5134C48
:102E900020B1012804D002280CD101E010482060A4
:102EA0006160082A06D10020A0602BB1012B08D058
:102EB000022B03D0002010BD206105E04FF480619B
:102EC00001E04FF4C06121610C21E060C4E905100C
:102ED000E0610248FEF73CFC012010BDEC0100203F
:102EE0000044004002490968486001207047000022
:102EF000EC01002001490880012070479C0000205F
:102F000038B5174C0025207808B1FDF7A4FA6846BB
:102F1000FFF7B0FF607830B1124A012807D00228CD
:102F200010D0032801D1FFF773FE284638BD0020DA
:102F3000A0809DF80000A1880A44491CA18010705F
:102F400002200BE0A088FF2807D89DF80010A08879
:102F50000244401CA0801170E5E703206070E2E7A6
:102F6000A0000020DC41002070B50E4D00246878E0
:102F700070B102280BD003280DD0687858B168785A
:102F8000022808D06878032805D0FDF764FA0120EC
:102F9000FFF768FF0446FFF735FE01206870204602
:102FA00070BD0000A000002070B5154C00256078B1
:102FB000012801D0FDF74FFA207810B101281CD16B
:102FC00004E000210120FFF705FE16E0608850B103
:102FD000A0680078FFF786FFA068401CA0606088AA
:102FE000401E608009E00320FFF73CFF05460021FA
:102FF0000120FFF7EFFD00202070284670BD000083
:10300000A00000201CB537480168374A914207D11B
:10301000502080F31188BFF34F8FBFF36F8FFEE70F
:1030200000683149491E884207D1502080F3118839
:10303000BFF34F8FBFF36F8FFEE72C4908780190E5
:10304000FF20087008788DF800009DF800009DF8BA
:10305000002000F0F000904207D0502080F311884B
:10306000BFF34F8FBFF36F8FFEE79DF80000204C3A
:1030700000F0500020700720A06005E09DF80020BF
:1030800052008DF80020401E9DF800201206F5D455
:10309000A060032807D0502080F31188BFF34F8F22
:1030A000BFF36F8FFEE74FF44070A0600198087087
:1030B0000C482030016841F470010160016841F062
:1030C00070410160FFF714FE00206060FDF7F0F82A
:1030D0000848016841F040410160FDF7D5F8002043
:1030E0001CBD000000ED00E071C20F4100E400E0F3
:1030F0007800002034EF00E02DE9FF5F8346DDE932
:103100000E87994616468A469000FFF779FC05001F
:103110001CD05420FFF774FC040014D00020256359
:1031200084F85100CDE90240CDE900874B46324694
:1031300051465846FFF7BCFB2046FFF7E1FA012055
:1031400004B0BDE8F09F2846FFF7A0FD4FF0FF3028
:10315000F6E7F0B585B0DDE90B640A9DA6B1DCB1F8
:10316000542700972663022684F85160002604AF96
:10317000CDE90246CDE90057FFF79AFB2046FFF75D
:10318000BFFA049805B0F0BD502080F31188BFF35A
:103190004F8FBFF36F8FFEE7502080F31188BFF38E
:1031A0004F8FBFF36F8FFEE72DE9F0412F4C0026C4
:1031B000206B28B1A069401CA0613046BDE8F081B9
:1031C000E5686D1CE56013D1606B006838B1502074
:1031D00080F31188BFF34F8FBFF36F8FFEE7606BF3
:1031E000A16B6163A063206A401C2062FFF7D2FBE1
:1031F000A06ADFF87C80854209D3606B0068A0B1CB
:10320000606BC068C7687868854211D2A062206888
:10321000C06A00EB800158F82100012800D901267E
:10322000E0690028C9D00126C7E74FF0FF30EDE77D
:10323000381DFFF77FFCB86A18B107F11800FFF7D7
:1032400079FCF96A0120226988401043206101EB72
:10325000810108EB8100391DFFF7B0FCF86A216895
:10326000C96A8842C9D30126C7E700001C000020B4
:10327000CC0400202DE9F0472C4D00242746286B74
:1032800038B1FFF7CFFC286B401E2863286B40B194
:1032900046E0502080F31188BFF34F8FBFF36F8F4C
:1032A000FEE7A968224E0120D1B3A6F1B4098046F9
:1032B0003068E8B1F068C46804F11800FFF73AFC20
:1032C000201DFFF737FCE06A2A6908FA00F1114374
:1032D000296100EB800109EB8100211DFFF76EFCE5
:1032E000E06A2968C96A8842E2D3C5F81C80DFE732
:1032F0000CB1FFF74FFBAC6944B14646FFF754FFF2
:1033000000B1EE61641EF9D10020A861E86938B10E
:103310000849012738070860BFF34F8FBFF36F8F4D
:10332000FFF7A0FC3846BDE8F08700001C00002035
:103330008005002004ED00E04FF04070E1EE100A3F
:1033400070470000C8350008691900080000000037
:10335000000000000001000000000000000000006C
:10336000BC3500080B190008000000000000000038
:10337000000100000000000000000000B03500085F
:1033800019190008030000000000000000010000FF
:10339000000000000000000000000000000000002D
:1033A00001020304060708090000000001020304EB
:1033B00000C1814001C0804101C0804100C1814005
:1033C00001C0804100C1814000C1814001C08041F5
:1033D00001C0804100C1814000C1814001C08041E5
:1033E00000C1814001C0804101C0804100C18140D5
:1033F00001C0804100C1814000C1814001C08041C5
:1034000000C1814001C0804101C0804100C18140B4
:1034100000C1814001C0804101C0804100C18140A4
:1034200001C0804100C1814000C1814001C0804194
:1034300001C0804100C1814000C1814001C0804184
:1034400000C1814001C0804101C0804100C1814074
:1034500000C1814001C0804101C0804100C1814064
:1034600001C0804100C1814000C1814001C0804154
:1034700000C1814001C0804101C0804100C1814044
:1034800001C0804100C1814000C1814001C0804134
:1034900001C0804100C1814000C1814001C0804124
:1034A00000C1814001C0804101C0804100C1814014
:1034B00000C0C101C30302C2C60607C705C5C404D4
:1034C000CC0C0DCD0FCFCE0E0ACACB0BC90908C844
:1034D000D81819D91BDBDA1A1EDEDF1FDD1D1CDC34
:1034E00014D4D515D71716D6D21213D311D1D010A4
:1034F000F03031F133F3F23236F6F737F53534F494
:103500003CFCFD3DFF3F3EFEFA3A3BFB39F9F83803
:1035100028E8E929EB2B2AEAEE2E2FEF2DEDEC2CF3
:10352000E42425E527E7E62622E2E323E12120E063
:10353000A06061A163A3A26266A6A767A56564A453
:103540006CACAD6DAF6F6EAEAA6A6BAB69A9A868C3
:1035500078B8B979BB7B7ABABE7E7FBF7DBDBC7CB3
:10356000B47475B577B7B67672B2B373B17170B023
:103570005090915193535292965657975595945413
:103580009C5C5D9D5F9F9E5E5A9A9B5B9959589883
:10359000884849894B8B8A4A4E8E8F4F8D4D4C8C73
:1035A00044848545874746868242438341818040E3
:1035B00050726F636573735461736B004D6F644237
:1035C00075735461736B000064656661756C745447
:1035D00061736B00F4350008000000205C010000FE
:1035E000C4010008403600085C010020F4A100007E
:1035F00020020008C132018210036124F41AAA01DA
:10360000012C022B023211139920330804139B1F43
:103610003308031A3D0829E013A9213308061A13B9
:103620000832171AFD1829FC13591E3308051ABD54
:1036300038320F1A452029741ACB180134000000C3
:040000050800018965
:00000001FF
